:020000040000FA
:10C000003DB8F3960000000000020000747C0000C0
:10C010000000000000000000000000000000000020
:10C02000FFFFFFFFFFFFFFFFFFFFFFFFFFFFFFFF20
:10C03000FFFFFFFFFFFFFFFFFFFFFFFFFFFFFFFF10
:10C04000FFFFFFFFFFFFFFFFFFFFFFFFFFFFFFFF00
:10C05000FFFFFFFFFFFFFFFFFFFFFFFFFFFFFFFFF0
:10C06000FFFFFFFFFFFFFFFFFFFFFFFFFFFFFFFFE0
:10C07000FFFFFFFFFFFFFFFFFFFFFFFFFFFFFFFFD0
:10C08000FFFFFFFFFFFFFFFFFFFFFFFFFFFFFFFFC0
:10C09000FFFFFFFFFFFFFFFFFFFFFFFFFFFFFFFFB0
:10C0A000FFFFFFFFFFFFFFFFFFFFFFFFFFFFFFFFA0
:10C0B000FFFFFFFFFFFFFFFFFFFFFFFFFFFFFFFF90
:10C0C000FFFFFFFFFFFFFFFFFFFFFFFFFFFFFFFF80
:10C0D000FFFFFFFFFFFFFFFFFFFFFFFFFFFFFFFF70
:10C0E000FFFFFFFFFFFFFFFFFFFFFFFFFFFFFFFF60
:10C0F000FFFFFFFFFFFFFFFFFFFFFFFFFFFFFFFF50
:10C10000FFFFFFFFFFFFFFFFFFFFFFFFFFFFFFFF3F
:10C11000FFFFFFFFFFFFFFFFFFFFFFFFFFFFFFFF2F
:10C12000FFFFFFFFFFFFFFFFFFFFFFFFFFFFFFFF1F
:10C13000FFFFFFFFFFFFFFFFFFFFFFFFFFFFFFFF0F
:10C14000FFFFFFFFFFFFFFFFFFFFFFFFFFFFFFFFFF
:10C15000FFFFFFFFFFFFFFFFFFFFFFFFFFFFFFFFEF
:10C16000FFFFFFFFFFFFFFFFFFFFFFFFFFFFFFFFDF
:10C17000FFFFFFFFFFFFFFFFFFFFFFFFFFFFFFFFCF
:10C18000FFFFFFFFFFFFFFFFFFFFFFFFFFFFFFFFBF
:10C19000FFFFFFFFFFFFFFFFFFFFFFFFFFFFFFFFAF
:10C1A000FFFFFFFFFFFFFFFFFFFFFFFFFFFFFFFF9F
:10C1B000FFFFFFFFFFFFFFFFFFFFFFFFFFFFFFFF8F
:10C1C000FFFFFFFFFFFFFFFFFFFFFFFFFFFFFFFF7F
:10C1D000FFFFFFFFFFFFFFFFFFFFFFFFFFFFFFFF6F
:10C1E000FFFFFFFFFFFFFFFFFFFFFFFFFFFFFFFF5F
:10C1F000FFFFFFFFFFFFFFFFFFFFFFFFFFFFFFFF4F
:10C200004010002085F1000003270100D9F1000053
:10C21000D9F10000D9F10000D9F1000000000000C0
:10C220000000000000000000000000003DEF0000E2
:10C23000D9F1000000000000E9EE0000ED26010049
:10C2400045F1000045F1000045F1000045F1000016
:10C2500045F1000045F1000045F1000045F1000006
:10C2600045F1000045F1000045F1000045F10000F6
:10C2700045F1000045F1000045F1000045F10000E6
:10C2800045F1000045F1000045F1000045F10000D6
:10C2900045F1000045F1000045F1000045F10000C6
:10C2A00045F1000045F1000045F1000045F10000B6
:10C2B00045F1000045F1000045F1000045F10000A6
:10C2C00045F1000045F1000045F1000045F1000096
:10C2D00045F1000045F1000045F1000053B94AB9AD
:10C2E000002908BF00281CBF4FF0FF314FF0FF307E
:10C2F00000F074B9ADF1080C6DE904CE00F006F859
:10C30000DDF804E0DDE9022304B070472DE9F047D1
:10C31000089E0D4604468846002B4DD18A4294461D
:10C3200068D9B2FA82F252B101FA02F3C2F12001E5
:10C3300020FA01F10CFA02FC41EA030894404FEAAA
:10C340001C45210CB8FBF5FE1FFA8CF705FB1E837C
:10C3500041EA03430EFB07F199420BD91CEB03039F
:10C360000EF1FF3080F01E81994240F21B81AEF148
:10C37000020E63445B1AA4B2B3FBF5F005FB103365
:10C3800044EA034400FB07F7A7420AD91CEB040464
:10C3900000F1FF3380F00881A74240F20581644438
:10C3A0000238E41B40EA0E4000211EB1D4400023B5
:10C3B000C6E90043BDE8F0878B4208D9002E00F0A3
:10C3C000EE800021C6E900050846BDE8F087B3FA13
:10C3D00083F100294AD1AB4202D3824200F2F980B4
:10C3E000841A65EB030301209846002EE2D0C6E9CB
:10C3F0000048DFE702B9FFDEB2FA82F2002A40F01D
:10C400009180A1EB0C054FEA1C471FFA8CFE01211D
:10C41000B5FBF7F307FB1350250C45EA00450EFB6F
:10C4200003F0A84208D91CEB050503F1FF3802D23E
:10C43000A84200F2CB8043462D1AA4B2B5FBF7F018
:10C4400007FB105544EA05440EFB00FEA64508D93B
:10C450001CEB040400F1FF3502D2A64500F2BB80BC
:10C460002846A4EB0E0440EA03409EE7C1F12007F2
:10C470008B4022FA07FC4CEA030C20FA07F405FA79
:10C4800001F31C43FD404FEA1C4900FA01F3B5FBE0
:10C49000F9F8200C1FFA8CFE09FB185540EA0545F7
:10C4A00008FB0EF0A84202FA01F20BD91CEB0505BD
:10C4B00008F1FF3A80F08880A84240F28580A8F118
:10C4C000020865442D1AA4B2B5FBF9F009FB10551A
:10C4D00044EA054500FB0EFEAE4508D91CEB0505F8
:10C4E00000F1FF346CD2AE456AD90238654440EAA7
:10C4F0000840A0FB0294A5EB0E05A542C846A6463F
:10C5000056D353D05EB1B3EB080265EB0E0505FAC6
:10C5100007F722FA01F3CD401F43C6E90075002159
:10C52000BDE8F087C2F1200320FA03F10CFA02FC07
:10C5300025FA03F395400D434FEA1C471FFA8CFE82
:10C54000B3FBF7F107FB11302B0C43EA004301FB6F
:10C550000EF0984204FA02F408D91CEB030301F12F
:10C56000FF382FD298422DD9023963441B1AADB23D
:10C57000B3FBF7F007FB103345EA034500FB0EF36E
:10C58000AB4208D91CEB050500F1FF3816D2AB42CF
:10C5900014D902386544ED1A40EA014138E73146C2
:10C5A000304607E78646E5E61846FAE64B45A9D247
:10C5B000B9EB020864EB0C0E0138A3E74046EAE74A
:10C5C000204694E74146D1E7D0467BE7023B6544ED
:10C5D00032E7084609E76444023842E7704700BF83
:10C5E0002DE9F041AEB000230393AF4D284606F08D
:10C5F00058FA80B1AD4CAE484FF4E821216005F007
:10C6000067FA216807AA284606F0AAF950B1A94896
:10C6100005F05EFA03E02968A74805F059FA2EB044
:10C62000BDE8F0810899A548A181022301EB4102F0
:10C63000E38105F04DFA2968204601F0DDFD05464D
:10C6400008B19F48E4E710230AAA0121204605F01B
:10C65000B2FF002840F384809A480AAA012105F01D
:10C6600037FA02219148082305AA05F0A4FF002803
:10C670004FF0020140F387809348944F05F028FA69
:10C6800005AE002416F8011B3846013405F020FAE7
:10C69000082CF7D18E4805F01BFA8448042303AA1E
:10C6A000032105F088FF002840F38F80039A894812
:10C6B000032105F00DFA7D4810230AAA042105F094
:10C6C0007AFF002840F38C8083480AAA042105F0F1
:10C6D000FFF9039B0A2B03D17448042105F067FF7F
:10C6E000724880230EAA052105F065FF002840F35B
:10C6F0008D807A48754F052105F0EAF90EAE0024C9
:10C7000016F8011B3846013405F0E2F9802CF7D108
:10C710006F4805F0DDF9DFF8C881644E714F0524DC
:10C7200040F6CD40002104F053FF039BB3F5C87FD2
:10C7300080F0AA80052C40F08480404605F0C8F9BE
:10C74000ABB2009304AA04230321304602F008F898
:10C7500000286FDB0499384605F0BAF90135EFE798
:10C7600061490AA805F0D4FF0AA901225F4805F033
:10C77000AFF90AA805F0E8FF0AAA431C01212046E8
:10C7800001F01AFF6DE75A4805F0A2F9FF238DF872
:10C790001430FE238DF81530FD238DF81630FC2360
:10C7A0008DF81730FB238DF81830FA238DF81930E7
:10C7B000F9238DF81A30F8238DF81B3005AA0823C9
:10C7C00002213A4801F0F8FE67E74A48032105F0E4
:10C7D0007FF9042303AA0321344801F0EDFE6AE740
:10C7E000039B002B7FF47CAF4348042105F070F9D4
:10C7F00042490AA805F08CFF0AA805F0A5FF0AAA7D
:10C80000431C0421294801F0D7FE69E7039C002C52
:10C8100081D13B48052105F05BF90EAA234602F8B9
:10C82000013B0133802BFAD10EAA05211F4801F0EC
:10C83000C3FE70E71DBB334805F04AF9324805F0E6
:10C8400047F92146384605F043F9013C7FF468AFCB
:10C850001F4805F03DF9039B0133039303AA04230A
:10C860000321304601F0A8FE039BB3F5C87F02D137
:10C87000264805F02DF9002000F03AFD50E7049914
:10C88000234805F025F9D9E7224805F021F9224887
:10C8900005F01EF90023039303AA04230321034890
:10C8A00001F08AFEBBE600BFC42E01001802002082
:10C8B000343201006032010042320100793201005D
:10C8C0008E320100A1320100E8320100F63201008F
:10C8D000333501001C330100653301009933010039
:10C8E000D6330100EF330100B6320100C23201003D
:10C8F000FA3201003833010077330100943301002C
:10C90000AD330100F53301002B3401003A3401004E
:10C9100010340100503401007334010030B50A4C6A
:10C920000A44914200D130BD11F8013B584003093F
:10C93000E35C83EA0013DDB2C3F30313E05C80EA37
:10C940000510C0B2EDE700BF8E3401000B68013363
:10C950000B60014B1B68184700000020014B18605A
:10C96000704700BF0000002007B50B4600210246BB
:10C970000191034801A900F0F9F803B05DF804FB48
:10C980004DC9000030B585B0CDE901010446002550
:10C9900001A90548039500F0E9F8DDE90230984265
:10C9A000B8BF255405B030BDAB1A01002DE9F84FD2
:10C9B000B0F8189019F00808044693460DD00129E4
:10C9C0000CBF49F0100949F02009A0F818908BF32A
:10C9D0001188BFF36F8FBDE8F88F09F007090229AE
:10C9E00007D1204605F08EF80028F0D00128238BCF
:10C9F0004ED16769218B002F15DA256821F00701D8
:10CA0000C4E9008841F0010121830026218B01F057
:10CA1000070ACA4502D0A368002B5AD10DB9002ECF
:10CA200071D0002356E001F007035A1F012A1ED8D7
:10CA300021F00701062B256889B2C4E900880AD1D4
:10CA40003DB1638B2A46126801339BB2002AFAD1AA
:10CA5000638341F002012183204605F053F8064626
:10CA60000028D3D0238B43F020032383CDE7042B6E
:10CA70000CD121F0070189B22183204605F042F84C
:10CA800005460028C1D041F0200121830025BCE7E4
:10CA9000032809D1226923F00703166843F006032F
:10CAA000238300252F46B1E7042806D1226923F00D
:10CAB0000703566843F00403F2E7052806D122690C
:10CAC00023F00703966843F00503E9E700252E46A7
:10CAD000E8E7012341F0080121838BF31188BFF3BC
:10CAE0006F8FFBB985BB16B11F492046B0474FF089
:10CAF0002003EFF3118B83F31188BFF36F8F238B28
:10CB000023F008032383238BDA0625D523F01003B3
:10CB100023830121B4F8189009F0070900297FF454
:10CB20005EAF54E7A1680029DCD0D1F80090D1F8BD
:10CB300004B03B4652462046D847B9F1000FD1D049
:10CB40004946D9F80090F2E729463B46524620462E
:10CB50002D6804F0F3FFC5E713F020011EBF23F09A
:10CB6000200323830221D5E7691B01002DE9F04F43
:10CB700091B08B46029092461C4600259AF8000020
:10CB800008B928465FE325280AF1010707D0029B70
:10CB9000594698470028C0F25683013512E2182200
:10CBA00000210AA805F008FE9AF80130252B78D05C
:10CBB00000221046964694461646394617F8013B21
:10CBC0002B2B00F09D8000F29480202B00F09B80A6
:10CBD000232B00F09B802EB19DF8306046F00406B8
:10CBE0008DF83060BCF1000F05D09DF8306046F044
:10CBF00008068DF83060BEF1000F05D09DF830605A
:10CC000046F010068DF8306028B19DF8300040F0F5
:10CC100020008DF830002AB19DF8302042F040020B
:10CC20008DF830209DF8302002F04400442803D1D4
:10CC30006FF386128DF830209DF830202A2B42F0B9
:10CC400080028DF830207BD19DF8312042F0010226
:10CC50004B1C8DF831201A782E2A9DF831200CBFFC
:10CC60000121002161F341028DF8312074D15A78FD
:10CC70002A2A6AD0013300210A26184610F8012B0F
:10CC8000A2F13007092F40F28E809DF830200E91DE
:10CC9000C2F3400040EAD17161F341028DF83020C7
:10CCA0005AE00AF102078DF833309DF83130D90788
:10CCB00040F1498154F8049BB9F1000F07DA9DF85F
:10CCC000302042F004028DF83020C9F100095A07E3
:10CCD00040F1428154F8048BB8F1000F80F2418199
:10CCE0009DF831306FF341038DF831304FF0FF384C
:10CCF00037E12D2B0CD0302B7FF46DAF01225CE798
:10CD00004FF0010C59E74FF0010E56E7012054E7B0
:10CD1000012652E70CFB0202303A33461E4616F853
:10CD2000010BA0F13007092FF4D9994293D09DF857
:10CD300030100D92D20F62F341018DF830108AE766
:10CD40000B4600224FF00A0CE8E79DF8312042F034
:10CD500004028DF8312002331F4617F8012B6C2A8C
:10CD600041D025D8682A2BD06A2A46D04C2A4CD0EC
:10CD70001F4617F8012B9DF831308DF83320782AA3
:10CD800000F2D980572A4DD8412A03D0453A022AC9
:10CD900000F2D1809DF83230042262F302038DF854
:10CDA000323001239EE006FB01213039034664E75F
:10CDB000742A26D07A2ADBD19DF8313006220DE084
:10CDC0005A78682A9DF8312006D1012161F3C60204
:10CDD0008DF831209F1CCCE71346022262F3C60374
:10CDE0008DF83130C5E75A786C2A9DF8312001D191
:10CDF0000421EBE713460322F0E79DF831300522CA
:10CE0000ECE79DF831300722E8E7BDF8303023F435
:10CE1000F04323F0020343F4804343F00203ADF8F0
:10CE20003030A6E7A2F15801202900F2848001A049
:10CE300050F821F0F9CE000037CF000037CF0000C6
:10CE400037CF000037CF000037CF000037CF0000CA
:10CE500037CF000037CF000095CD000037CF00005E
:10CE6000F9CE0000B9CE000095CD000095CD0000B0
:10CE700095CD000037CF0000B9CE000037CF0000BD
:10CE800037CF000037CF000037CF000001CF0000C0
:10CE9000F9CE00001DCF000037CF000037CF0000D3
:10CEA0001DCF000037CF0000F9CE000037CF0000C3
:10CEB00037CF0000F9CE00009DF83210012003F0BA
:10CEC000780360F30201402B8DF8321002BF9DF809
:10CED000301041F001018DF83010632A31D1003B50
:10CEE00018BF01239DF83020C2F340010B4363F3C8
:10CEF00041028DF83020D8E69DF832100220DEE79E
:10CF00009DF8322003F07803A3F14000032161F380
:10CF1000020243428DF832204341E3E79DF832207C
:10CF2000032113F0780F61F302028DF8322014BF51
:10CF300001230023D6E79DF8303043F001038DF83C
:10CF400030300023CEE79DF93020002AB4BFDDF851
:10CF500034904FF0FF39BAE69B077FF5C7AEDDF896
:10CF600038809DF831100023CDE90D339DF8323023
:10CF700003F00703012BC1F3C30138D1CB1E042BEF
:10CF800022D8DFE803F003090921210054F8043B0B
:10CF9000DA17CDE90A3206E0073424F00704F4E892
:10CFA0000223CDE90A239DF8303013F0030656D052
:10CFB00002983B465246594604F09FFE0028C0F2B4
:10CFC00042810544BA46D9E554F8043B01294FEAA9
:10CFD000E372CDE90A3205D19DF828300A93002387
:10CFE0000B93E0E70229DED1BDF92830D0E7022B10
:10CFF00023D1CB1E042B13D8DFE803F0030A0A1257
:10D00000120022680A920023201D0B930446CAE7EF
:10D01000E01D20F00700F0E80223CDE90A23F5E740
:10D0200054F8043B0A9301294FF000030B93D3D02B
:10D030000229B8D1BDF82830D0E7042B09D1E31D6F
:10D0400023F0070303F10804D3E90023CDE90A2301
:10D05000A9E7032B04BF54F8043B0A93A3E79DF808
:10D0600033007828AED8622822D825283FF48FAD27
:10D070005828A7D10DF126030093DDE90A0104AB7E
:10D080000CAA04F0F4FD8246B8F1000F0DF1260061
:10D090000CDB9DF83020A0EB0A036FF38612984555
:10D0A0008DF8302002D9A8EB03030D9380463DE0B4
:10D0B0006338152886D801A252F820F03DD100002F
:10D0C000A1D10000C5CF0000C5CF0000C5CF000032
:10D0D000C5CF0000A1D10000C5CF0000C5CF000022
:10D0E000C5CF0000C5CF0000FBD10000C9D10000B2
:10D0F000CDD10000C5CF0000C5CF000015D1000084
:10D10000C5CF0000C9D10000C5CF0000C5CF0000C9
:10D11000C9D10000B8F1000FDDF828A00ADB4146B4
:10D12000504605F018FB0AEB00080026BAF1000F84
:10D130000CD147E7504605F007FBF4E70A9B8DF852
:10D14000103000260DF1100A0DF11108A8EB0A03AA
:10D1500006B101339DF83220D00668D5023352065D
:10D160000D9948BF0E9A0B4448BF9B18B9F1000FA8
:10D1700076DD9DF83020A9EB0309C2F38003039309
:10D1800053076DD4500661D546B1029B59463046CF
:10D190009847002857DB039B01351E46302356E095
:10D1A0001E070FD413F0100618BF2026DDE90A234E
:10D1B000002BBFF65FAF524263EB4303CDE90A2376
:10D1C0002D2657E72B26F1E7002653E70A9840B3B0
:10D1D0000DF1260300930CAA04AB002104F047FDD7
:10D1E000BDF8323003F0EF0343F4F04343F0100393
:10D1F0008246ADF83230002646E70A9B07293FF603
:10D20000E1AEDFE801F00C04060C08080C0C1D7000
:10D21000D8E61D80D6E6EA17C3E90052D2E61D60C3
:10D22000D0E6DFF8C8A006460AF105088EE7110728
:10D2300048BF013393E7184603935946029B98472A
:10D240000028039B04DA11B0BDE8F08F20234D4481
:10D250004A46002AA5EB090109F1FF39EBDC0D462E
:10D2600036B1029B5946304698470028EBDB013522
:10D270009DF83230D90601D41A0706D5029B5946CB
:10D28000302098470028DEDB01359DF83230DB0680
:10D2900007D59DF83300029B594698470028D2DBFA
:10D2A00001350D9E2E44731B002B16DC029843465D
:10D2B0005246594604F021FD0028C4DB0544A94428
:10D2C000A9EB0503002B7FF77DAE029B594620207A
:10D2D00098470028B7DB0135F2E7029B594630201A
:10D2E00098470028AFDB0135DDE700BF9E34010021
:10D2F00008B504464FF02002EFF3118382F3118842
:10D30000BFF36F8F05F0F4F9204602F0FFFA0348EF
:10D3100004F0DEFB01F0A6FEFCE700BFA434010030
:10D3200030B51049104889B0002205F044FD0F4D7A
:10D330000F4900220023CDE9062300240E23CDE966
:10D340000334CDE901440B4B00944FF4407228465E
:10D3500003F0C8FC0849284605F0F7FB204609B051
:10D3600030BD00BF7DD30000580000209000002099
:10D3700020090020FDD60000CD340100014803F053
:10D3800009BE00BF4400002010B50B4B00221A70EC
:10D390000A4B0B4A1A604FF4004000F0BFFC00F04B
:10D3A00071FA084804F0C0FCBDE81040064907487F
:10D3B0000423282205F07FBBF50400200400002090
:10D3C000671D010054020020E01900205C020020CB
:10D3D00010B54FF02003EFF3118483F31188BFF3EE
:10D3E0006F8F044804F0B0FC84F31188BFF36F8F93
:10D3F00010BD00BF54020020064BBFF35B8F53E803
:10D40000002F013243E800210029F8D1BFF35B8FE0
:10D41000704700BF4C0200200020064BBFF35B8F1B
:10D42000024653E8000F43E800210029F9D1BFF379
:10D430005B8F70474C020020F8B5FFF7EDFF0A4CF8
:10D440000A4D2D1B07462D110026AE4200DBF8BD0C
:10D4500063685B792BB123681B6913B13946204699
:10D46000984701361034F0E7643001008430010041
:10D47000044A054B9B1AB1EBD30F34BF52F831006D
:10D48000002070471430010064300100094A4368ED
:10D49000801A10B50011084C196001300122187172
:10D4A0005A71237813B9054803F074FD01232370E2
:10D4B00010BD00BF64300100F404002044000020CF
:10D4C00070B5124BBFF35B8F53E8005F6A1C43E8F3
:10D4D00000210029F8D1BFF35B8F2DB90C4C0D4E04
:10D4E000361B3611B54200DB70BD237B53B1236878
:10D4F0009B690BB12046984763680422196820464F
:10D50000FFF7C4FF01351034ECE700BF50020020E4
:10D510006430010084300100164B984237B5044650
:10D5200002D3154B984220D314480022002301A9AE
:10D5300003F078FB0546D8B90122019BBFF35B8F4E
:10D5400053E8001F43E800200028F9D1BFF35B8FA8
:10D55000019821461F22043005F0E4F8019C7E2347
:10D5600084F8233084F824500434204603B030BDBE
:10D57000034CFAE7142E0100203E01005C0200205B
:10D58000D534010048B1054B984205D3A0339842E9
:10D590002CBF00200120704700207047E0190020B8
:10D5A0002DE9F04F474B1B7885B0044603B900B313
:10D5B000FFF70EFF054678B1BFF35B8F424B53E890
:10D5C000002F013A43E800210029F8D1BFF35B8F17
:10D5D0009CB1284604F0C6FC2CB93C4B1B68002BC0
:10D5E00001DDFFF729FF3A4804F0ACFB041E18BF29
:10D5F0000124204605B0BDE8F08F364B1B78E3B917
:10D600002B7ADB0719D404F0C0FC0746284604F047
:10D6100087FC0146384604F0AAFBDFF8BC802F4B9C
:10D62000DFF8BCB0A3EB0803DB0803932D4BA3EB9F
:10D63000080306464FEAD30A36B92B4E2B4FBF1BC1
:10D640003F114FF000083AE0B6FA86F1C1F11F0928
:10D650004946284604F067FC254B9842014602D310
:10D66000244A90421AD30846FFF78CFF0246A8B915
:10D67000214B994212D06B890399C3F389138B42D2
:10D6800038BF58F833204FEA8A1343F00103ADF84E
:10D69000003049463B46584604F0C3FB012303FAD9
:10D6A00009F126EA0106C7E773685B7923B133689D
:10D6B00029465B683046984708F101081036B8459E
:10D6C000F2DB86E7F4040020480200204C02002030
:10D6D00054020020F50400201430010064300100E1
:10D6E000EF34010034300100643001008430010067
:10D6F000142E0100203E0100D534010010B5FFF7C3
:10D70000DFFE03F07FFF0C4B186030B10B4B1B6842
:10D71000092B02DD0A4803F03DFC094C0020FFF70D
:10D720003FFF0028FAD14FF0FF324FF0FF33204681
:10D7300003F050FCF2E700BF78020020480200200E
:10D7400044000020294B37B51B68418104469847A7
:10D75000E0604FF02003EFF3118583F31188BFF3EE
:10D760006F8F2348214604F0E3FA85F31188BFF355
:10D770006F8FBFF35B8F1F4B53E8002F013243E8DD
:10D7800000210029F8D1BFF35B8F1B4A127882B1C8
:10D790004FF02003EFF3118483F31188BFF36F8FF1
:10D7A0000020FFF7FDFE84F31188BFF36F8F03B0F5
:10D7B00030BD124A1B681268002AF8D0012B0AD12A
:10D7C00000220023CDE900230D484FF4004200233E
:10D7D00004F0EEF8EBE70A2BE9D1094805F0F7FA77
:10D7E000084803B0BDE8304003F0D4BB040000207B
:10D7F0005402002048020020F50400207802002096
:10D800005800002044000020F8B50E4F3D7875B94F
:10D810000D4C0E4EFFF754FE361B3611B54207DB9A
:10D820000020FFF7BDFE0028FAD101233B70F8BDB0
:10D8300063685B791BB1236820465B6998470135B3
:10D840001034EBE7F504002064300100843001005F
:10D8500007B504380190BFF35B8F50E8003F5A1EB4
:10D8600040E800210029F8D1BFF35B8F012B03D1E1
:10D87000034801A905F03AF903B05DF804FB00BFC5
:10D880005C0200202023024902481A4605F013B921
:10D89000801A00207C02002037B50023094D019337
:10D8A0000120FFF77DFE0446FFF7A6FD00220023BE
:10D8B00001A9284603F0B6F908B1002CF0D101986F
:10D8C00003B030BD7C02002007B500230193074858
:10D8D0000022002301A903F0A5F910B1FFF7DCFF36
:10D8E0000190019803B05DF804FB00BF7C020020AA
:10D8F000F0B5037A85B0DC0701901ED4457A2D0976
:10D900001BD0002426460198314604F00CFB074644
:10D91000FFF738FE70B134B9019B2946186904F04D
:10D9200026FA044648B124FA06F3D90702D5384648
:10D93000FFF78EFF0136AE42E5D3019B1A7A9207BC
:10D9400004D55B69084C0393039B2BB9064801A9D6
:10D9500005F0CCF805B0F0BD1D6803A9204605F020
:10D96000C5F80395F0E700BF7C0200200EB403B5B4
:10D9700003AB014653F8042B04480193FFF7F6F874
:10D9800002B05DF804EB03B0704700BF8B220100CA
:10D990002DE9F0471D46089B1746DA0604460E4659
:10D9A00005D499064CBF2A492A49FFF7DFFFDFF863
:10D9B000A8904FF00008A8452ADBDFF8A080DFF828
:10D9C000A090DFF894A00025BD422FD2725D494699
:10D9D0002046FFF7CBFF0135102D20D12149DFF87C
:10D9E0007880DFF884902046FFF7C0FF0025AF4223
:10D9F00028D9725DA2F120035F2B28BF2E22494651
:10DA00002046FFF7B3FF0135102D14D1BDE8F08794
:10DA100049462046FFF7AAFF08F10108CBE76A074D
:10DA2000D2D151462046FFF7A1FFCDE7414620461F
:10DA3000FFF79CFFCFE76B07D9D141462046FFF7A0
:10DA400095FFD4E741462046FFF790FFDBE700BF94
:10DA500033350100323501003D3501003B35010011
:10DA6000353501003F350100413501002DE9F04F0A
:10DA700087B011F0020605929DF84080BDF94890EC
:10DA800007461A4601F0010A01F0080506D011F018
:10DA9000440F38D13349FFF769FF0646BAF1000F4A
:10DAA0000AD0314B314953F82820314B3846002AEF
:10DAB00008BF1A46FFF75AFF3DB12E4B2E4953F8C7
:10DAC00028203846FFF752FF0546B9F1000F16DB54
:10DAD000059B002B43D0012303FA08F8274B284C61
:10DAE00018F0100F18BF1C4649469DF84400FFF778
:10DAF000BFFC214602463846FFF738FF0544A81907
:10DB000007B0BDE8F08F1F4B196831B31E4B4FF4BF
:10DB100061661B68B2FBF3F34FF47A7BB3FBF1F45D
:10DB2000B4FBF6F206FB124601FB14340BFB04F4C3
:10DB30004FF03C0CB4FBF1FEB6FBFCF301FB1E44C2
:10DB40000CFB13660BFB04F40096B4FBF1F1CDE97A
:10DB500001E10E49FFF70AFF9FE708469DE7084CE1
:10DB6000C2E700BF52350100B8300100773501002F
:10DB700044350100CC3001007A3501004E350100FA
:10DB800049350100980200209C0200205B3501000D
:10DB900038B50C46E107054603D5084A0849FFF7A2
:10DBA000E5FEE20608D4A30628464CBF054906490F
:10DBB000BDE83840FFF7DABE38BD00BF443501008C
:10DBC0007735010033350100323501002DE9F0478A
:10DBD0008B7A13F007088AB005460E46174622D006
:10DBE0000A7A4989C3F3C203C1F38911D243CDE94B
:10DBF00000830291F36802F001023946FFF736FF15
:10DC00008146347AE44314F001040ED029463046AC
:10DC100004F0D1F9B8F1000F2BD04246394628461E
:10DC2000FFF7B6FF25E0C146EBE7B8F1000F26D1BC
:10DC30002746EB68069306AA3B46A968304604F0DF
:10DC4000A6F9069A6B681A603AB1AB68134413F8E8
:10DC5000014CA4F10A035C425C41284604F008FB35
:10DC6000069B1F44002BE4D11CB114492846FFF742
:10DC70007DFE28460AB0BDE8F04704F0F9BA304608
:10DC800004F083F90E4902462846FFF76FFE4FF075
:10DC9000100A05AA234606A93046CDF814A004F0C0
:10DCA00076F9059A002AB8D04B46009706A928466F
:10DCB000FFF76EFE059B1C44EBE700BF80350100BB
:10DCC0007735010073B542F20F738B4228BF0B46C4
:10DCD00005680F4A04460521684603F006FF63689D
:10DCE0000C495B6806460B22284604F057F9636826
:10DCF0003246694628465B6804F050F96368064975
:10DD00005B681B22284604F049F902B070BD00BFD1
:10DD100028340100BE350100A2350100084A10B5C3
:10DD20000123084C13600021A04204D801B1136004
:10DD3000054B186010BD40085B000121F4E700BFEF
:10DD40009C02002040420F0098020020F8B5074FC7
:10DD50000D4604464618B44201D12846F8BD38683D
:10DD600014F8011B83685B689847F4E7B40200204D
:10DD7000014804F07DBA00BFFC3001000148FFF704
:10DD8000A1BF00BFFC30010008B5034802F0F2FD5E
:10DD9000024B186008BD00BFCA350100B402002064
:10DDA00010B508460C4604F0AEF8054821460F228F
:10DDB000FFF70CFF2046BDE8104004F0D3B800BFC9
:10DDC000FC300100014B01221A707047070500204A
:10DDD000024B034801221A7004F04ABA08050020D9
:10DDE000283101000148FFF76DBF00BF2831010055
:10DDF00010B508460C4604F086F8054821460F2267
:10DE0000FFF7E4FE2046BDE8104004F0ABB800BFC9
:10DE100028310100054B1B781BB141F2883004F01A
:10DE2000C6BFA420002103F0D3BB00BF080500201B
:10DE30002DE9F047DFF88C90DFF88CA080460F4684
:10DE4000042499F80050CDB94FF0FF334FF0FF3262
:10DE5000504602F0E5FF3A464146284602F014FDDE
:10DE60000646504603F054F8184DFEB101232B70BE
:10DE700099F800306BB93846BDE8F0873A4641461C
:10DE8000002002F001FD0646EEE75CB92C704FF071
:10DE9000FF34002002F044FD0028ECD02B78002B4A
:10DEA000F3D1E8E7013CFFF7B5FFF2E72B7813B1B8
:10DEB000013C04D12C702B78002BC2D1DBE7FFF79B
:10DEC000A9FFF8E708050020300000200705002022
:10DED0002DE9F34783890768204A0E0C090C03FBE0
:10DEE00001771F49521AD2089201054642F00402F6
:10DEF000ADF800201B491C483A4603F092FF360457
:10DF0000D5F82880B5F80CA0D8F80890D9F80C30CE
:10DF1000B3B9D9F808305246394640469847D9F83F
:10DF20000C300446B3B98CB9EA6AAB891279314630
:10DF3000284604F01CFA041E18BF6FF0050405E023
:10DF400000214046984704460028E2D0204602B00F
:10DF5000BDE8F087012140469847E4E72C300100F6
:10DF600014300100D8370100F23501002DE9F743E4
:10DF70001C4B1D4ADFF874909B1ADB0806469B0178
:10DF80000D464A881A481B4943F0040303F030FF4A
:10DF9000F06A082104F024FA2C68241A80462C60C8
:10DFA00004EA0907BC4203D8002003B0BDE8F083AF
:10DFB00008236A462146304604F0A1F90028F4D12E
:10DFC0006946304604F016FA40B1BDF80230BDF89B
:10DFD00004202C6007EA090713441F44A4EB08043B
:10DFE000E0E700BF2C300100143001000000FFFF0B
:10DFF00013360100C3370100104A114B13B59B1AA9
:10E00000DB089B0182880F49044643F004030E4855
:10E0100003F0EEFE4FF6FF73ADF800300023ADF8CD
:10E0200004306846A368ADF8023004F0C5F96946CB
:10E03000204604F05FFA02B010BD00BF14300100AA
:10E040002C300100A83701003A3601002DE9F04FCD
:10E05000044697B0C06A082104F0C2F963681B0C3B
:10E060001B04064605A9E089059304F0AEF9059B5B
:10E07000A1891944891B082308AA2046069104F0A7
:10E080003EF90028C0F2AD80E36A08AA197900239E
:10E0900012F8010B814240F093800133082BF7D135
:10E0A000A06863683044834280F0838005992046ED
:10E0B000FFF70EFF95E0069BBDF822201B0C1B040A
:10E0C00013440693484B494DDFF824B1ED1AED088F
:10E0D000AD0145F0040303930AAA06A92046DDF822
:10E0E00018A004F018FA00287BD10AA9204604F0F1
:10E0F00081F900283DD0636807930CAA07A9204640
:10E10000079F04F008FA00286BD1BDF83020BDF855
:10E1100028309A4231D06268079B9A42EDD1574528
:10E1200027D1BDF82C3023B3039A3248ADF8002034
:10E130005946BDF8282003F074FEBDF82A804FEA46
:10E140001A431B0498440AA8A368ADF82A3004F0C7
:10E1500033F9E36ABDF82C901F687F4207F020076F
:10E16000B9F1000F10D10AA9204604F0C3F9002824
:10E1700037D1029B9A45AFD192E70CA9204604F013
:10E1800039F90028C7D0CAE74F453D4628BF4D465C
:10E190002B460EAA4146204604F0B1F808BB2A4699
:10E1A0000EA9204604F093F9D8B9A9EB0509A844B3
:10E1B000D6E72046FFF720FF00283FF477AF10E0B6
:10E1C000069B08A99B1B2046029304F02DF900280A
:10E1D0007FF471AF06A92046FFF7C8FE00283FF480
:10E1E00071AF17B0BDE8F08F143001002C30010082
:10E1F000BC370100573601002DE9F04F044689B0C5
:10E200000D4600F11407384604F0B3FC284602F02E
:10E21000B1FBA06278B9AB4BAB49AC48C91AC9088D
:10E22000890141F0010103F0C2FD6FF005052846A8
:10E2300009B0BDE8F08F83681B699847E06260B958
:10E24000A149A04BA248C91AC908890141F001019E
:10E2500003F0ADFD6FF01505E9E7A06A83681B695F
:10E2600098470368013B1F2B08D99749954B99485C
:10E27000C91AC908890141F00101E9E7A06A2168CA
:10E2800005AA04F06DFB40B18F498E4B9248C91A24
:10E29000C908890141F00101DAE7A5892DB1069B82
:10E2A000B5FBF3F203FB125545B18749854B8B480B
:10E2B000C91AC908890141F00101C9E7E389012BA5
:10E2C00008D881497F4B8648C91AC908890141F09D
:10E2D0000101BDE7E36A009593F804804FF0FF3336
:10E2E0004FF0FF32384602F09BFDE06A082104F04F
:10E2F00077F8A9460646E3891FFA85FA534545D8BB
:10E30000E3894B4500F0F2809A450BD10099082330
:10E310004246891B204604F02AF818B9E08969466C
:10E3200004F053F869462046FFF720FE0546002812
:10E3300040F0DE80009BDFF8AC91636003EA0903E4
:10E34000A360D4E9011399420ED3082301AA204601
:10E3500003F0D5FFC0B901AB13F8012B904540F095
:10E36000028101300828F7D16368E0891B0C1B0487
:10E370006946009304F029F8A38900994246204693
:10E3800003F0F5FF002826DA0546B1E0A1892B0449
:10E39000891B13FA81F1424608232046009103F0BD
:10E3A000E6FF78B1E089694604F00FF809F1010948
:10E3B00000990823424620461FFA89F903F0D7FF47
:10E3C00000289DD0013596E7BAF1000F00F0E380F8
:10E3D0006FF01C058CE04FD06368334400934FF618
:10E3E000FF780099A3898AB29B1B9A421FD3354BB1
:10E3F00035493D48C91AC908890141F0030103F0B4
:10E40000D6FC61682046FFF763FD0028BCD1636835
:10E41000344AA18913400B44A3EB460363601340C5
:10E42000A3602046FFF712FE002840D0ACE7082387
:10E4300003AA204603F063FF0028A5D103A92046C4
:10E4400003F0D8FF38B1BDF80C30434503D1BDF817
:10E450001030002B70D0009B33440093C1E75B1A4F
:10E460004246204603F083FF00288DDB08D0E26A95
:10E47000A36812681344A360D4E901318B42EED83B
:10E480006168A38901EB46029A42CDD1DFF854803E
:10E49000A36801EA08029342C6D02046FFF718FDA0
:10E4A00000287FF471AF636803EA0803A360A089C2
:10E4B000A388A0EB4606B3421AD12046FFF79CFD85
:10E4C00062E700BF143001002C30010081360100EA
:10E4D0009D360100BF360100DC360100F436010034
:10E4E000083701000000FFFF7A3701006FF02C05AC
:10E4F000384602F00DFD002D7FF499AE0123237400
:10E50000274E284BA289E1892748F61AF608B6015A
:10E5100046F00306334603F06BFC6168234833463C
:10E520008AB2090C03F064FCA16821488AB2334620
:10E53000090C03F05DFC7AE61A4B19491D48C91A0B
:10E54000C908890141F0030103F031FC6368E089E7
:10E550001B0C1B046946009303F037FF009920460B
:10E56000FFF7B6FC60E701A9204603F043FFD4F8AB
:10E5700004B080B1009ABDF808A0BDF80610E06AAA
:10E5800002EA0902A260514403F02AFF02445A45FC
:10E59000A2603FF419AFABEB06036360D1E600BFA6
:10E5A0002C300100143001002B37010042370100EC
:10E5B00054370100653701002DE9F04F1E46037CFA
:10E5C00089B00446894690467BB9614B61496248EF
:10E5D000C91AC908890141F0010103F0E8FB6FF095
:10E5E0000C05284609B0BDE8F08FC26A0821104624
:10E5F00003F0F6FE31468246104603F0F1FEA38991
:10E60000A3EB8A039E42074600F29E801EB1B8F13A
:10E61000000F00F099806368039304AA03A92046C1
:10E62000DDF80CB003F077FF05460028D9D1BDF81E
:10E6300010304B4505D06268039B9A42EDD1E6B994
:10E64000CFE704A9204603F0D5FE0028F3D0BDF89B
:10E65000143086B19E4210D1BDF812004FEA1B4122
:10E660000904014433464246204603F056FE002882
:10E6700003DC0546B5E7002BB3D0A7BB04F1140AB1
:10E680004FF0FF324FF0FF33504602F0C9FBDFF886
:10E69000CCB0E3899D4254D0D4E90123F9188A42D1
:10E6A00024D3ADF81A3006A8FF238DF81E30ADF83C
:10E6B0001890ADF81C6003F07FFE324641462046BC
:10E6C00003F005FF034638B906A9204603F012FF00
:10E6D000002814BF034633460193504602F018FC4D
:10E6E000019B1D467DE75744BFB2C7E70821E06A9A
:10E6F00003F076FE4FF6FF73ADF818300023ADF847
:10E700001C301318ADF81A30A38902EA0B021A4420
:10E71000121A626006A803F04FFE06A9204603F015
:10E72000E9FEE089211D03F050FE636803EA0B0354
:10E73000A3602046FFF78AFC03460028CCD10135B0
:10E74000A7E76FF01B03C7E76FF0150549E700BFA8
:10E75000143001002C3001006D3601000000FFFF75
:10E760002DE9FF471E46037CBDF8309004460F4656
:10E77000904673B92B4B2C492C48C91AC9088901FA
:10E7800041F0010103F013FB6FF00C0004B0BDE891
:10E79000F087C06A082103F023FEA389A3EB40039E
:10E7A0009E423CD8636801934FF0000A02AA01A977
:10E7B0002046019D03F0AFFE0028E7D1BDF80830E8
:10E7C000BB4208D102A9204603F014FE18B10AF199
:10E7D000010A1FFA8AFA6268019B9A4218D0D14551
:10E7E000E4D2BDF80C30BBB1D14515D8BDF80A1044
:10E7F0002D0CB3424FEA054528BF33464246294413
:10E80000204603F07CFD0028C0D1BDF80C00BDE718
:10E81000BDF80830BB42E4D06FF00100B6E76FF0FE
:10E820001500B3E7143001002C3001006D360100F3
:10E83000F8B505464FF02003EFF3118683F31188F6
:10E84000BFF36F8F094B1C685CB1094FD4E90132EB
:10E85000002D08BF13460BB1387898472468002C68
:10E86000F4D186F31188BFF36F8FF8BDCC0200207E
:10E87000D40200201FB50F4B1A68BAB901221A60E2
:10E880000D4A07CA01AB83E807000C4A4AB193E876
:10E89000070003F0B0FF002005B05DF804EBFFF7C0
:10E8A000C7BF82F31188BFF36F8FF4E705B05DF83F
:10E8B00004FB00BF08000020D4020020F72701005D
:10E8C000F0B589B06E4601460546304603F07AFE43
:10E8D00096E80700174C84E807002078274638B3ED
:10E8E000154B002119606B1C0DD0144816464FF4CF
:10E8F000004C134A0023E6FB0C01FDF7EFFC01215D
:10E90000281A04F036FA02F0E5FB0120FFF790FF29
:10E9100097E8070005AB83E807000A4A1AB193E8B5
:10E92000070003F055FFFFF7A5FF02F08BFC2078EE
:10E9300009B0F0BDD4020020080000203F420F00C3
:10E9400040420F00D127010010B50748074C02F0E4
:10E9500011F8074B1860204600F0BAFF2046FDF77B
:10E96000FDFF002010BD00BFCA35010075E90000A1
:10E97000E00200200A2838B5074D044604D1286873
:10E9800083680D215B68984728688368E1B25B68FB
:10E990009847204638BD00BFE0020020084B70B504
:10E9A000C31A0D4607499B100446594306484022A6
:10E9B00003F029FE2B4601462046BDE8704018476B
:10E9C000F8020020B76DDBB6642E010073B50C4C65
:10E9D0000C4A4023041B00930D460B460A49A41021
:10E9E00061430646094803F03BFE011E05DA304646
:10E9F0002B4602B0BDE87040184702B070BD00BFA2
:10EA0000F8020020CF260100B76DDBB6642E0100AE
:10EA1000002270B501210446104600F0BDFA002026
:10EA200000F09CFA0F4801F071FD0F4B984215D190
:10EA300004F017F826690D49304603F0B2F80028B3
:10EA40000BDB246909490125356404F11C0003F03E
:10EA5000A8F8002801DBE564002070BD6FF0040019
:10EA6000FBE700BFA5EA00000000AD0B6431010028
:10EA700001460C2309484B4370B5C418D4E90E561F
:10EA800000224033A263184403F0AAFD2DB13246A0
:10EA90002B460348BDE87040184770BDF8020020BF
:10EAA000642E010010B1012804D07047034B1B6C89
:10EAB0005B0701D1FFF7DCBF704700BFF802002001
:10EAC00008B54FF02003EFF3118183F31188BFF3F2
:10EAD0006F8F124A136843F0020013F001031060B5
:10EAE0000CD04FF08042D2F80C34D2F80C2413F042
:10EAF000010303D00A4803F073FD012381F3118859
:10EB0000BFF36F8F23B1BDE808400020FFF7B0BF0F
:10EB1000BDE80840012001F009BD00BF4803002006
:10EB2000380300201FB500220123CDE90223094A42
:10EB3000CDF800D06B46CDF804D003F0C1FD00281D
:10EB400005DB4FF480420023684602F043FA05B02B
:10EB50005DF804FBE726010010B5074C23782BB9BC
:10EB60004FF4A57004F023F901232370BDE8104091
:10EB7000002001F0DBBC00BF09050020094BBFF3FA
:10EB80005B8F53E8002F22F0020143E800100028B9
:10EB9000F7D1BFF35B8FD30702D4012001F00EBD84
:10EBA000704700BF480300202DE9F0413949BFF309
:10EBB0005B8F0746012251E8003F41E80020002812
:10EBC000F9D1BFF35B8F33B9334934484B60CB6025
:10EBD0008A6002F0F9FF7B1E012B2FD8012F07D18D
:10EBE0004FF08043D3F81C3403F00303012B25D0EE
:10EBF00003F0A5FF044618B9294B1B78002B41D11F
:10EC00004FF02003EFF3118683F31188BFF36F8F6A
:10EC10000124DFF890804FF08045D5F81834D5F8FE
:10EC20001824D2030CD503F00303012B01D0012FCC
:10EC300006D10CB386F31188BFF36F8FBDE8F08166
:10EC4000ACB1304600F01CFAD5F81835002BE4D1F1
:10EC5000D5F80421002AE0D0C5F80431D5F80431F4
:10EC60000123C5F81835C8F88031AB60D5E700211D
:10EC7000212002F0ADFCE7E74FF080430222C3F809
:10EC80000423DBE74FF080430222C3F80823064643
:10EC9000BFE700BF4C030020E8020020140300205F
:10ECA0001C09002000E100E0044A1368C81A20F0A3
:10ECB0007F400344136002F0DDBD00BF600300200D
:10ECC0002DE9F843860006F1804600F1500406F570
:10ECD0008836A400A4B204F180444FF48037D6F8FB
:10ECE0004035DFF86C8021F07F4504F5883487409B
:10ECF000D8F80495A3EB090323F07F4329F07F4262
:10ED0000012BC6F8402502D1132004F050F809F178
:10ED10000202AB1A23F07F43B3F5000F88BF1546FC
:10ED2000002323602368C8F8447325F07F43C6F8A6
:10ED30004035D8F80435994506D0EB1A023B23F04C
:10ED40007F43B3F5000F01D8BDE8F8832B46CFE72A
:10ED50000010014070B5154D154C00262B680020A1
:10ED600006B170BDD4F80423D203FAD5D4F84021FB
:10ED7000002AF6D0C4F84061D4F840214FF4803224
:10ED8000C4F84823D4F84015D4F80465721A22F068
:10ED90007F42B2F5000F88BF314601261BB16A6879
:10EDA00028609847DAE72B60DBE700BF54030020B8
:10EDB0000010014038B50F4C00254FF48033C4F8E3
:10EDC0000855C4F804330C4B4FF40032C3F88021CB
:10EDD00001212A46112000F0DFF8112000F0BEF8D2
:10EDE0000123064AA360022023601360FFF7DCFEC4
:10EDF000284638BD0010014000E100E05C0300201F
:10EE0000134AB0F1FF3F14BF03461346013B002BEA
:10EE10001CDD9342A8BF13460E4AD2F804050E4AE1
:10EE20001168401A10F4000F20F07F4218BF002331
:10EE300001321344094A0A48106000205060044A15
:10EE4000934294BFC9188918FFF73ABF0023E3E73C
:10EE5000FFFF7F00001001406003002054030020EA
:10EE6000A9EC0000044BD3F80405044B1B68C01A3E
:10EE700020F07F40704700BF001001406003002079
:10EE80004FF02003EFF3118283F31188BFF36F8FEC
:10EE90000649074B0868D3F8043582F31188BFF39D
:10EEA0006F8F1B1A23F07F431844704760030020C4
:10EEB00000100140094A0A4993680968996709499D
:10EEC00058674B6843F080534B60002383F31188ED
:10EED000BFF36F8F9368986F704700BFB404002032
:10EEE0001C32010000ED00E012498A684FF030004A
:10EEF0001044EFF3098C80E8F01F202080F3118884
:10EF0000BFF36F8F0C4F4FF000664A6A8A603E6015
:10EF1000506F0023536780F3118804B5104600F04A
:10EF2000FFFBBDE8044002F1300090E8F01F8CF3D5
:10EF300009887047B404002004ED00E01EF0040FBF
:10EF40000CBFEFF30880EFF30980816911F8021C10
:10EF50000229FFD001B503F0D0FB01BD43B2002B65
:10EF600008DB012200F01F0002FA00F05B09024AF0
:10EF700042F82300704700BF00E100E0054B420962
:10EF800000F01F0053F82220012303FA00F0104084
:10EF9000704700BF00E100E043B2002BA8BF03F1BF
:10EFA000604301F10101B8BF064B4FEA4111ACBF0C
:10EFB00003F5614300F00F00C9B2B4BF195483F8E0
:10EFC0000013704714ED00E042F8203C009B42F82B
:10EFD0001C3C0A49019B42F8183C029B42F8143C35
:10EFE00021F001014FF0807342F8043C42F8081C04
:10EFF0000023203A02654367704700BF5B1C010095
:10F00000094A0346906870B113F1160F406E05D09F
:10F01000A0F120029A4205D8834203D2814228BF40
:10F020000020704700207047B404002008B5094B49
:10F0300098600D46144600F073FB204685F309885E
:10F04000002163B681F31188BFF36F8F0022002384
:10F0500002F003FEB4040020014910220A60704748
:10F0600010ED00E072B6404080F31188BFF36F8F5F
:10F07000BFF34F8F30BF62B6BFF36F8F704700BFD3
:10F0800072B6494081F3118820BF80F3118862B6BF
:10F09000704700BF73B506460C4601B3134B144DC1
:10F0A0001448ED1AED08AD0145F00105ADF800502A
:10F0B000D1E90123096802F0B4FEADF80050D4E9AB
:10F0C0000423E1680C4802F0ACFEE1690B482A46D3
:10F0D00002F07AFEA1690A482A4602F075FE21462E
:10F0E000304602B0BDE8704001F06EBC1430010043
:10F0F000443001001F3801004E3801007D38010006
:10F100008C38010030BFFFF7FDBF00BF0B4A08B5C8
:10F110000B4B22F07F029A60BFF34F8FBFF36F8FCC
:10F12000D3F8882022F47002C3F8882001F0AAFCEA
:10F1300002F0C0FA00F0CAFA01F0C8FC00C20000F8
:10F1400000ED00E001B572B60B4A106A00281EBF40
:10F150000021116203F0FEFC62B6EFF30580A0F11E
:10F1600010004FEAC0000549014409C99847BDE8AD
:10F170000140034908470000B4040020DC2E0100D0
:10F1800029F60000002080F31488BFF36F8F03F08E
:10F190003BFE00200D490860BFF34F8F0C4880F301
:10F1A000088800F061FA202080F3118809484FF4A4
:10F1B0000261401880F30988EFF3148002210843AC
:10F1C00080F31488BFF36F8FFFF7A0FF94ED00E08A
:10F1D00040100020C0110020EFF30880EFF30981F8
:10F1E00001B5724600F04EF901BD00BF2DE9F047B0
:10F1F000354B364C364DE41AE408A40144F00109BD
:10F200000746884633484946164602F0D0FDAB6AA9
:10F21000DB0603D53048494602F0C9FDAB6A180742
:10F2200004D52E4844F0010102F0C1FD284DAB6A1F
:10F23000990723D46FF01509254DAB6ADB0704D578
:10F24000274844F0010102F0B2FDAB6A980604D5EC
:10F25000244844F0010102F0AAFD1D4B9A6AD10630
:10F2600024D49A6A920721D40020194A936A43F061
:10F27000FF03936200233370BDE8F08744F0010A76
:10F280001948514602F093FDD5F83490AB6A1A063E
:10F29000D0D516485246494602F096FDB8F1000F07
:10F2A000CAD0AB6A23F08003AB62C5E75B681B057D
:10F2B000DAD539464846FFF7A3FE0028D4D080F3BC
:10F2C00009880220D1E700BF14300100443001005A
:10F2D00000ED00E0BA380100D03801000339010028
:10F2E0004439010063390100163901002E3901004B
:10F2F00070B5234B234C244D2448E41AE408A401A0
:10F3000044F00106314602F052FDAB6A9B0103D581
:10F310001F48314602F04BFDAB6ADD0104D51D48A4
:10F3200044F0010102F043FD174DAB6A180304D508
:10F33000194844F0010102F03AFDAB6A590304D5C3
:10F34000164844F0010102F032FD0F4DAB6A9A03FA
:10F3500004D5134844F0010102F029FDAB6ADB0338
:10F3600004D5104844F0010102F021FD064A936AD9
:10F370006FEA03436FEA13439362002070BD00BF3E
:10F38000143001004430010000ED00E0923901002A
:10F39000AA390100BD390100D7390100F539010052
:10F3A0001A3A0100343A01002DE9F0412A4B2B4C66
:10F3B0002B4DE41AE408A40144F0010807460E4668
:10F3C0002848414602F0F3FCAB6AD90403D526482D
:10F3D000414602F0ECFCAB6A1A0504D5234844F020
:10F3E000010102F0E4FC1E4DAB6A9B0512D544F00E
:10F3F00001081F48414602F0DAFCA96BAB6A180409
:10F4000008D51C48424602F0DFFC1FB1AB6A23F46A
:10F410000043AB62124DAB6A590504D5164844F05F
:10F42000010102F0C4FCAB6ADA050DD5134844F0C3
:10F43000010102F0BCFC0A4A936A002043F47F43B6
:10F4400093623070BDE8F081AB6A9B04F3D50C4841
:10F4500044F00101EDE700BF143001004430010029
:10F4600000ED00E05F3A0100753A01000339010048
:10F47000863A01009F3A0100B43A0100CF3A0100F8
:10F48000633901002DE9F043584B5E688BB00F469D
:10F49000C6F30804002585F31188BFF36F8F02F0CF
:10F4A0007F43B3F17F4F0DD102F00C03082B0BD13A
:10F4B0004F49504B5048C91AC908890141F0010110
:10F4C00002F075FC2F4603E0120701D40746012520
:10F4D00000238DF80730E31E092B6ED8DFE803F018
:10F4E000055C60406D6D6D6D6D64424B404EDFF8A4
:10F4F000FC804248F61AF608B60146F0010631468D
:10F5000002F055FCD8F82C404FF0000914F002042A
:10F510008DF8079005D03A48314602F048FC0024A7
:10F5200021E0D8F82C305B001DD53648314602F07A
:10F530003EFC98F8283033B10DF10702012138461E
:10F54000FFF754FE0EE098F829302BB10DF10701BA
:10F550000120FFF729FF05E0B8F82A309BB213B16C
:10F56000FFF7C6FE04469DF8073093B920223946BE
:10F5700002A803F016F9099B9DB3C3F3080222B950
:10F580006FEA53236FEA4323099302A92046FFF74A
:10F5900081FD0BB0BDE8F0830DF107020021CEE73D
:10F5A0000DF107010020D4E71149124B1648C91A82
:10F5B000C908890141F00101AFE70E4A0C4B13481D
:10F5C00013499B1ADB0816F4F87F4FEA831318BF20
:10F5D000014643F001030F48A4F1100202F008FCB9
:10F5E0009DE723F4FF7323F00103CDE700ED00E076
:10F5F0004430010014300100E73A0100123B0100E1
:10F60000293B01004A3B0100693B0100A23B01008C
:10F610008D3B0100BB3B0100024A536943F01003DC
:10F620005361704700ED00E0044B9968586A8842C6
:10F6300003D003494FF080520A607047B4040020A1
:10F6400004ED00E00749D1F890200023C2F307221F
:10F650001846934200D17047C1F89830C1F8A00015
:10F660000133F6E700ED00E008B572B6002383F33E
:10F670001388FFF7E7FF144B4FF0FF32C3F88020E9
:10F68000C3F88420C3F88820C3F88C20C3F89020E6
:10F69000C3F89420C3F89820C3F89C20C3F88021B5
:10F6A000C3F88421C3F88821C3F88C21C3F89021C2
:10F6B000C3F89421C3F89821C3F89C2162B6BFF324
:10F6C0004F8FBFF36F8F08BD00E100E004480023B7
:10F6D0002021C2180133272B82F80013F9D170477B
:10F6E00000E100E0064B9B68834207D1EFF30583FE
:10F6F00023B1044A536843F08053536001F088BF3C
:10F70000B404002000ED00E0024B034A034801214D
:10F7100000F08CB8000001200000002070310100D2
:10F72000426E054B203A1A60044A2021C3E90112B7
:10F730001846012100F084B86403002000000B1576
:10F74000F8B52A4F0E460021B14214DA4468002C65
:10F7500048D0C3B104F1FF3C14EA0C0F0DD0244A89
:10F76000244B2548D21AD208920142F0010202F03D
:10F770002BFB6FF015021046F8BD1F2CEFD9056862
:10F780001CEA050FEBD1202CD5B2D0F808C00268D6
:10F7900016D9B4F1004F15D8013CB4FA84F4C4F181
:10F7A0001F046400072D4CEA04040DD9104A114BC4
:10F7B0001248D21AD208920142F001022946D6E735
:10F7C0000824EFE73E24EDE722F01F022A4342F02F
:10F7D000100244F00104C7F89850C7F89C20C7F8FD
:10F7E000A0406A1C01310C30AEE700BF00ED00E024
:10F7F0003C30010014300100D23B0100F53B010018
:10F80000044B0522C3F89420BFF34F8FBFF36F8FD3
:10F81000704700BF00ED00E0BFF35F8F024B002296
:10F82000C3F89420704700BF00ED00E010B5034C12
:10F8300001232278FFF784FF207010BD0A05002005
:10F8400008B5094A00231278FFF77AFF10F1160F66
:10F8500003D0064B0022072800DD08BDC3F898003E
:10F86000C3F8A0200130F6E70A05002000ED00E013
:10F8700014490868082810B521D8FFF7CDFF124CAD
:10F8800049680022904201F10C0105D10F4B18701C
:10F89000FFF7B6FF002010BDC4F8982051F80C3CCB
:10F8A00023F01F03134343F01003C4F89C3051F8B6
:10F8B000043C43F00103C4F8A0300132E2E74FF00A
:10F8C000FF30E8E77C31010000ED00E00A05002090
:10F8D000014B1860704700BF0C0000204FF0200360
:10F8E000EFF3118283F31188BFF36F8F0649012371
:10F8F000C1F840354FF08041C1F8783582F3118866
:10F90000BFF36F8F0020704700E001404FF080434D
:10F91000C0B2C3F81C05BFF34F8F0549054BCA6839
:10F9200002F4E0621343CB60BFF34F8F00BFFDE7EB
:10F9300000ED00E00400FA0520B1034B800143F024
:10F9400001031847704700BFB030010008B5094BEC
:10F950001A786AB90121197006200521FFF71CFBEE
:10F960000620FFF7FBFA044B4FF00042C3F80423D4
:10F97000002008BD0B05002000600040F7B51746C9
:10F9800042680669127A01F01F04B7F5A03F0D46E0
:10F9900044EA42140CD104F01F0202F5E0724FF069
:10F9A000A04151F82220D00707D56FF085009AE0DA
:10F9B000B7F5005FF16800F09880F2680121A94076
:10F9C00011437269F1600121A940B7F5A03F0CBF56
:10F9D0000A438A437261B269B3F5C02F0CBF0A4370
:10F9E0008A43B2613269B3F5802F0CBF114322EA1A
:10F9F00001014A4A3161D2F804330020DBB200F53C
:10FA0000A27152F82110C1F304218C4272D123FA61
:10FA100000F1C9076ED5830003F1804303F5C043AD
:10FA2000D3F8101521F00101C3F81015012383400C
:10FA3000C2F80833C0B200F031FE2046002102F0C7
:10FA4000E5FEF068E84010F001004CD07069E84035
:10FA500010F0010255D0B369EB40DB075FBF31699D
:10FA600021FA05F505F00105C5F102050DF10700C4
:10FA700054BFEDB2032500F031FE294B98423DD131
:10FA80009DF80720930003F1804303F5C04324024F
:10FA9000D3F8101521F4473121F44071C3F8101543
:10FAA000D3F8101504F4F8540C4344EA0545C3F8A0
:10FAB0001055930003F1804303F5C2430020186002
:10FAC0009DF807101B688B0003F1804303F5C043CA
:10FAD000D3F8102542F00102C3F810250F4A012384
:10FAE0008B40C2F8043303B0F0BD0122AA4021EAE2
:10FAF000020166E70130082881D19EE76FF012000D
:10FB0000F1E73169E94001F00101C1F1030120464B
:10FB1000C9B202F07BFE1046E5E700BF006000407E
:10FB20000000AD0B2A4B70B546682A48134083424B
:10FB30003ED00DD8062B15D005D89BB1022B39D05D
:10FB40006FF0150033E0B3F5801FF9D1012309E010
:10FB50002148834230D0B3F5A00F2FD0B3F5800FEA
:10FB6000EED10223D00654BFC2F34015032582F420
:10FB7000807412F4007FC2F34020C4F3002407D045
:10FB800012F4006F76681BD001228A40C6F808255F
:10FB900040EA440201F01F0142EA032301F5E0714B
:10FBA0004FF0A04243EA850342F82130002070BDA7
:10FBB0000723D7E70423D5E70523D3E70323D1E7BA
:10FBC000520542BF01228A40C6F80C25E0E700BF7B
:10FBD0000600F00006001000020040002DE9F84386
:10FBE000414BD3F87C51002D59D0404B4FF0A049E8
:10FBF000D3E90521DF68D9F810451B690A4327EAD4
:10FC000002075C4027EA04043A4601264FF0000848
:10FC100082BB354BC3F87C21D3F87C31344A32485F
:10FC2000002301261F46D0F8041306FA03FC1CEA41
:10FC3000010F0CD0116851B103F5A27150F82110D9
:10FC40001760C1F3042106FA01F10C431168013376
:10FC5000082B02F10402E6D11CBB4DB1234ED6E9BC
:10FC60000531F2680B4322EA0302012400254ABB56
:10FC7000BDE8F88316420ED03E4208F01F0008BFD0
:10FC800000F5E0734FF0000108BF59F8233002F08F
:10FC9000BDFD22EA060208F101087600B8E72C460D
:10FCA000BCE7124B59680029D7D00E68114F8A68FB
:10FCB000224002D04B6838469847002ECDD03146BE
:10FCC0003668F4E714420CD03169E94001F00101D3
:10FCD000C1F10301C9B205F01F0002F097FD22EA4D
:10FCE000040201356400C2E7006000407403002094
:10FCF00000610040AC2E0100024B0B600123136039
:10FD0000704700BF9403002000487047E4310100B1
:10FD100070B50D462846194616461C4602F0D5FD1C
:10FD200070B90C4A0C4B0D489B1ADB089B0143F041
:10FD300001032246294602F05BF86FF0150070BD02
:10FD400034B122462946304602F02BFD0020F6E76A
:10FD50002046F4E71430010024300100353C010056
:10FD600010B5012211460648064C02F009FF02F0C8
:10FD70008CFE206002F085FE6060002010BD00BF98
:10FD80009C03002094030020F8B50D46144602F0B1
:10FD900078FE21460646284602F097FD2F4678B3A6
:10FDA000B5FBF6F306FB135323B9B4FBF6F006FBE1
:10FDB000104070B1184A194B19489B1ADB089B0177
:10FDC00043F001032246294602F012F86FF01500B5
:10FDD00015E0B44213D34FF0FF324FF0FF33114818
:10FDE00001F0F8F802F04DFE0546384600F0BAFC86
:10FDF000641B2F44F9D10B4801F0CCF82046F8BD24
:10FE0000054A064B08489B1ADB089B0143F0010397
:10FE100022462946D8E700BF1430010024300100F3
:10FE2000523C01009C030020353C0100F8B50E4611
:10FE30003046194617461C4602F047FD70B91F4A66
:10FE40001F4B20489B1ADB089B0143F0010322460D
:10FE5000314601F0CDFF6FF01500F8BD46EA04050C
:10FE600015F003050AD0154A154B17489B1ADB08F5
:10FE70009B0143F0010322463146EAE7DCB1134817
:10FE80004FF0FF324FF0FF3301F0A4F82B19032B92
:10FE9000A6EB050009D80E4AD2F80034DB07FBD5E3
:10FEA0000A4801F077F80020D7E77B1B043D19686A
:10FEB00000F078FCEAE72046CFE700BF14300100ED
:10FEC00024300100353C0100713C01009C030020FE
:10FED00000E0014070B54B79012B24D18B79032BC5
:10FEE00021D1CC792CB1012C1DD143685B689B07D3
:10FEF00019D00A7912B1022A15D10E220B68456871
:10FF0000B3F5164F2D6862D02BD8B3F5165F61D0CC
:10FF100014D8B3F5966F5FD008D8B3F5967F5ED04E
:10FF2000B3F5167F5ED06FF085004FE0B3F5166F26
:10FF30005BD0B3F5965FF6D1364B3CE0B3F5E14FBD
:10FF400056D007D8B3F5615F54D0B3F5964FEAD1D8
:10FF5000314B30E047F61226B342E4D14FF40003B0
:10FF600029E0B3F5613F47D013D8B3F5963F46D0AB
:10FF700009D84DF6C026B34243D0B3F5614FD2D174
:10FF80004FF46B0317E0B3F5E13FCCD14FF0EB73C7
:10FF900011E0B3F5612F37D008D8204EB34236D0E8
:10FFA000B3F5E12FBFD14FF0E86304E01C4EB3423C
:10FFB000B9D14FF08053C5F82435036903C92243F2
:10FFC0000433C5F86C2583E80300002070BD4FF4AE
:10FFD0001D03F0E7134BEEE74FF49E23EBE74FF4DE
:10FFE000A033E8E74FF41C33E5E74FF41D23E2E7C5
:10FFF0000D4BE0E70D4BDEE74FF06C73DBE70C4B8E
:020000040001F9
:10000000D9E74FF46503D6E74FF07063D3E74FF0BD
:100010008063D0E700B0130000A04E0090D0030032
:1000200040420F000050270000C0750000F03A0069
:1000300000903A01F8B5066905460F4602F07FFDCB
:1000400010B92C4B1B7883B94FF02003EFF31184C8
:1000500083F31188BFF36F8F686802F0A7FC28BB99
:1000600084F31188BFF36F8FEEE76424686802F0B1
:100070009DFC70B9012002F0F2FC013CF6D1002198
:10008000212001F0A5FAF0E784F31188BFF36F8F08
:10009000F5E74FF02003EFF3118483F31188BFF3EA
:1000A0006F8F686802F082FC0028EDD006F8107FA0
:1000B00069680B680122C3F84465C3F8482500222B
:1000C000C3F82021D3F82001C3F85821D3F85821D0
:1000D0004A68D20641BF0822C3F800254FF48002C7
:1000E000C3F8042301229A6084F31188BFF36F8F51
:1000F000F8BD00BF1C090020F8B50022054601210B
:100100000220FEF749FF0220FEF728FF6B682E69E8
:100110001C680023C4F8003531464FF0A04340224C
:1001200041F8045B0C20C3F8082506270322C3F816
:100130001827C3F82007C4F80C750827C4F81475ED
:10014000C3F81C072020C3F80805C3F814270523AB
:10015000C4F808350723C4F810352846FFF7BAFE5F
:100160000746B0B96B685B68190727D506F112001E
:1001700000F026FB254B98420DD0254B25492648FB
:10018000C91AC908890141F0010101F010FE6FF0A0
:1001900004073846F8BDB07CC30003F1804303F583
:1001A000F83304F10C0204F59071C3F81015C3F88C
:1001B00014251A4A01238340C2F804350823C4F8E1
:1001C00000350023C4F81031D4F8103106F11103C2
:1001D000C4F834350123C4F8383523606B685B6894
:1001E0001A075CBF4FF48072C4F80423DB0644BFD7
:1001F0004FF48003C4F8043310360023C4F8446578
:10020000C4F848350123A360E360C2E70000AD0BEA
:10021000143001005C300100AC3C010000F00140F2
:1002200008B5FDF7F1FA064B06490748C91AC9088F
:10023000890141F0010101F0BAFD0020FFF766FBE2
:10024000143001001C300100DB3C01004FF0704312
:1002500093F8E02F062A09D1D3F8E83FC3F303133C
:10026000033B042B02D8024AD05C70470020704741
:10027000073D0100024AD2F80034002BFBD0704742
:1002800000E0014010B502F0DBFB40B14FF08053BD
:10029000904AD3F82433C3F30423C2F84035FFF760
:1002A000D5FF10B18C4B8D4A5A6702F0C9FB48B19B
:1002B0004FF080534FF08042D3F84432C3F34233BF
:1002C000C2F83C35FFF7C2FF30B1854AD2F8FC30A6
:1002D00023F08073C2F8FC3002F0B2FB40B14FF063
:1002E00080430022C3F80C21C3F81021C3F838253D
:1002F000FFF7ACFF20B14FF080430322C3F8A025E5
:10030000FFF7A4FF60B1774B0522C3F81026012246
:10031000C3F888260022C3F818263F22C3F8142603
:100320004FF08053D3F83021511C09BF4FF0704378
:10033000D3F8343193F8E02FD3F8E83F08BFC3F384
:100340000313062A4DD1033B042B03D8664AD35C22
:10035000002B46D04FF08052644BD2F80414C3F8FF
:100360002015D2F80814C3F82415D2F80C14C3F8D9
:100370002815D2F81014C3F82C15D2F81414C3F8A9
:100380003015D2F81814C3F83415D2F81C14C3F879
:100390004015D2F82014C3F84415D2F82414C3F839
:1003A0004815D2F82814C3F84C15D2F82C14C3F809
:1003B0005015D2F83014C3F85415D2F83414C3F8D9
:1003C0006015D2F83814C3F86415D2F83C14C3F899
:1003D0006815D2F84014C3F86C15D2F84424C3F859
:1003E000702502F02DFB48B14FF080534FF0804252
:1003F000D3F8583203F04F03C2F8E43E02F020FB7A
:1004000048B14FF08043D3F80024D20744BF6FF0C7
:100410000102C3F800244FF08053D3F83021062A9C
:1004200026D1D3F83431033B042B02D8304AD35CB5
:1004300063B1304AD2F83C3743F48063C2F83C37AA
:100440004FF08053D3F83031062B11D14FF0805349
:10045000D3F83431033B042B02D8274AD35C3BB199
:100460004FF01023D3F808224FF08043C3F85825EB
:100470004FF01023D3F80022002A03DBD3F8043214
:10048000002B22DA1D4901234FF01020C1F804355A
:100490001524FFF7EFFEC0F80042FFF7EBFEC0F8AF
:1004A0000442FFF7E7FE0023C1F80435FFF7E2FE40
:1004B000BFF34F8F0A49124BCA6802F4E06213433C
:1004C000CB60BFF34F8F00BFFDE70E4B0E4A1A60A3
:1004D00010BD00BF0030014000C007400DF0ADBAB4
:1004E00000ED00E000500040F83C010000C000407A
:1004F000FD3C010000100040023D010000E0014011
:100500000400FA05240000200090D003044B1A795F
:1005100022B9012218609A80024870470248704749
:10052000B00300200000AD0B0C00AD0B30B510B1D6
:10053000012834D030BD4FF08043D3F81824D3F8CD
:100540001814C90329D502F00302012A25D1C3F8E2
:1005500018254FF080430022C3F80421D3F804216A
:100560000222C3F80423134AD2F8FC0040F080733F
:10057000C2F8FC30104B1C6844F0010119605D6842
:100580005968491BB1F50A5FFAD31C604FF08043EC
:10059000C2F8FC0001229A60CCE70022D7E74FF0B6
:1005A00080430022C3F80021D3F80021C3F80403DC
:1005B0001860BFE700ED00E0001000E038B510B1B2
:1005C000012817D038BD4FF080440223C4F8083307
:1005D000C4F80401D4F804310123E36042F2107539
:1005E000D4F81834DB03EDD5012002F038FA013DD0
:1005F000F6D1E7E74FF080440023C4F80803C4F8BD
:100600000031D4F80031606042F21075D4F80C3437
:10061000D4F80C24D20303F0010305D523B1012043
:1006200002F01DFA013DF1D1014B00225A71C9E7D8
:10063000B00300204FF0804310B5D3F800216AB119
:100640000022C3F80021D3F800210122C3F80823B7
:10065000114B587910B95A711B6898474FF0804375
:10066000D3F8042172B10022C3F80421D3F8042185
:10067000D3F81824D3F81814920704D10122C3F830
:1006800018259A6010BD0222C3F80823024BBDE86A
:1006900010401B6801201847B0030020012303FA13
:1006A00000F0C3B293B14FF02003EFF3118183F355
:1006B0001188BFF36F8F064AD36C23EA0000D06421
:1006C00081F31188BFF36F8F02487047024870476B
:1006D000B80300200000AD0B0400AD0B2DE9F04184
:1006E0000546DFF85CE01748DFF85C800024FF2255
:1006F0000126E3B24FF02001EFF3118C81F3118852
:10070000BFF36F8F22FA03F1C9070AD5DEF84C1048
:1007100006FA03F7394201BF3943CEF84C10404680
:100720002B708CF31188BFF36F8F404505D006FA0C
:1007300003F39A4304F10104DBD1BDE8F08100BF6B
:10074000B80300200200AD0B0000AD0B044AD2F844
:100750000034DB07FBD50160BFF35F8F704700BF3C
:1007600000E001404FF080531A69B0FBF2F302FB46
:10077000130373B9084B0222C3F80425C3F8080514
:10078000D3F80024D207FBD500220448C3F804257F
:1007900070470348704700BF00E001400000AD0B08
:1007A0000A00AD0B10B5054C0123C4F80435FFF762
:1007B000CDFF0023C4F8043510BD00BF00E00140A8
:1007C0002DE9F041144A154E154F054615480024F1
:1007D0004FF0010E5FFA84FC4FF02003EFF3118815
:1007E00083F31188BFF36F8F0EFA0CF3134207D017
:1007F00031680B4201BF1943316085F800C03846AB
:1008000088F31188BFF36F8FB84203D09A4304F185
:100810000104DFD1BDE8F081FFFF0F0008040020D4
:100820000000AD0B0200AD0B10B5114C114A12497E
:10083000032323616361114BA261E3614FF4806381
:1008400023620023A3626362E36222660C4A62664B
:10085000E01D1022A2662367E366636701F058FF7C
:100860000849204601F054FF2023A37110BD00BFAA
:100870000C0400200C3D0100153D01001C0500206A
:100880000C050020193D01002DE9F84F234F4FF0D2
:10089000180B14460BFB00720646936A556AAB426E
:1008A000884634D8D2F820A0AAEB050909F1FF3216
:1008B000944211D84FF0180906FB09933B44224695
:1008C00058684146284401F06CFF09FB06762C4429
:1008D00074620120BDE8F88F13449C421BD800FBD2
:1008E0000BBBBB444A46DBF804002C44284401F00F
:1008F00058FFB4EB0A0406D0DBF80400224608EBEC
:10090000090101F04EFF182000FB0676E0E7013BED
:100910005B1BA342CED20020DCE700BF0C0400200A
:10092000034B182202FB00339A6A586A801A7047F8
:100930000C0400200E4B70B553F82040013053F8E2
:100940002060A64200D870BDD4E9003528469847FB
:1009500065B1EB6830B10028B8BF4042FF28A8BF9E
:10096000FF2018705A7842F001025A700834E8E704
:100970000832010070B5054610B90024204670BD4C
:100980000378002BF9D00E4C0E4EB44208D10C4C1B
:10099000B442F2D0204602F084F850B91834F7E798
:1009A000204602F07EF810B12368AB42E6D018343E
:1009B000EBE72168284601F0D7FE0028EED1DDE7FD
:1009C000642E0100DC2E01002DE9F34106460F469E
:1009D0004FF02003EFF3118883F31188BFF36F8F7B
:1009E00000F010FE1F4C204BE41A042E4FEAD404F2
:1009F00096BF1E4A1E4A52F82620A40144F0010365
:100A00000546ADF800301B480023314601F009FAD5
:100A100047B1FB69C3F3080323B1174844F0010150
:100A200001F0C5F944F001042DB1284602F090F818
:100A300008B1037803B91148FCF76EFD234602465E
:100A400029460F4801F0D4F939463046FFF7E8FB54
:100A500088F31188BFF36F8F284602B0BDE8F041DC
:100A6000FEF740BE44300100143001002032010086
:100A7000203D0100363D01005E3D01002E3D01009C
:100A80007F3D01000248034A0021121A01F094BE82
:100A9000580000202009002008B50A4B012202203E
:100AA0001A70FFF747FF00F0D3FF0320FFF742FF64
:100AB00000F044F9FBF794FD034A137B23F0010394
:100AC000137308BD1C090020900100202DE9804807
:100AD000A7B0FCF759FCDFF8E09089F30888374DA0
:100AE000374E6B69DFF8DCA0374F43F40073002406
:100AF0006B61E02385F82230EC772C766C76AC764F
:100B00006B6A43F4E0236B62FEF786FDFEF7A4FAFE
:100B10004FF0FF33AB62EB62FEF7AAFE2B4DFEF700
:100B2000F3FD40F20113ADF8243006ABAB60CDE924
:100B30001F4401F0B5FF2046FFF7FCFE0120FFF740
:100B4000F9FE4FF0010B00F0AFFC214B6E62214922
:100B500005934FF480625346CDE9034BCDE9014440
:100B60000094304600F08CF8737B804623F0040339
:100B70003046737302F078F80F23CDE9024316492B
:100B8000164B4FF4A072CDE904B4CDE900543846B9
:100B900000F076F87B7BEF6023F004037B7305F1B4
:100BA0001803C5E906332C75C5F804905246414632
:100BB0003046FEF73BFA00BFE019002000ED00E0F0
:100BC00090010020990A010010010020B4040020C7
:100BD000E13D0100400C002060100020F50D0100F7
:100BE00070B50E4B0E4CA34201D3002070BDD3E96B
:100BF000030141EA000212F003020BD19D685A6121
:100C0000AA4201D11C33EEE75E690E6001325961E0
:100C10000144F5E76FF01500E8E700BF3000002061
:100C20003000002037B50C464FF02005EFF311815E
:100C300085F31188BFF36F8F45695DB125602B681F
:100C40004361836901338361002081F31188BFF31D
:100C50006F8F11E052EA030C03D125606FF00B0097
:100C6000F3E7CDE900230246083000F0A5FA18B9F1
:100C7000024B9B685B69236003B030BDB404002065
:100C80002DE9FF410E9E0673042646730D9E867362
:100C900000F158050F46D61DC0E916550C9A0025DF
:100CA00026F007062037C0E90655C0E919768560A9
:100CB000C573C56606F1200802920B9A019288441A
:100CC0000A9A009242460446FEF77EF9044B656597
:100CD0009B6803B11B6F2367404604B0BDE8F081F9
:100CE000B4040020F0B587B000270597109F049743
:100CF0000F9F03970E9F0297DDE912650D9F0197E5
:100D00000C9F00970446FFF7BBFFB5F1FF3F08BFFC
:100D1000B6F1FF3F05D055EA060305D1204600F0A5
:100D20005DFB204607B0F0BD034932462B4604F177
:100D3000180000F025FDF4E7892C01002DE9F043AF
:100D4000294C2A4D87B02646AE4204F130040FD319
:100D500000F0C0F9244CDFF898904FF4004640F2C0
:100D6000E737AC4220D307B0BDE8F04300F06ABAE1
:100D700054F8043C059354F8103C049354F8143C84
:100D8000039354F8183C029354F81C3C019354F814
:100D9000203C009354E90C0154E90A23FFF770FF4B
:100DA00054F8303C5E65CEE7636A5A1C0DD023EAE6
:100DB000E37300213846C3FB060151EAC333D4F87C
:100DC000008004D1404600F009FB3034C9E74FF4FD
:100DD0007A720023FBF782FA02460B4608F11800EC
:100DE000494600F0CDFCF0E7300000203000002044
:100DF000892C010008B5094C4FF02002EFF3118354
:100E000082F31188BFF36F8F01F0A3FF2062FDF71B
:100E100057FD0028F0D1FEF725F9EDE7B4040020D6
:100E20002DE9F341044617461E464FF02003EFF329
:100E3000118883F31188BFF36F8FC368324A6BB197
:100E400080689168884219D057EA060318D188F360
:100E50001188BFF36F8F6FF00F000CE0916891F96C
:100E60000E1021610133E3609368A36088F3118859
:100E7000BFF36F8F002002B0BDE8F0812169F0E779
:100E800091F90E1090F90E309942A8BF19466FF0F3
:100E90007E029142B8BF11468B422EDD01F061FE09
:100EA0000546CDE9007619482246414600F084F90E
:100EB0000028E0D04FF02003EFF3118683F3118870
:100EC000BFF36F8F236821699C420AD04BB193F91D
:100ED0000E309942A8BF19466FF07E039942B8BF01
:100EE0001946A06801F03DFE00B945B107483146FA
:100EF00000F0DEF86FF00A00BDE70025D1E786F3C9
:100F00001188BFF36F8FF5E7B40400201D0900209E
:100F100038B583680446002B32D01C4A926893424D
:100F200031D1DA7B013ADA73C368012B05D9013B71
:100F3000C36000F087F9002038BD4FF02003EFF3C5
:100F4000118583F31188BFF36F8F0169806801F009
:100F500008FE204601F0CFFEA06058B190F90E20A7
:100F600022610022826701F07FFE0948294600F0D5
:100F70009FF8DEE7E06085F31188BFF36F8FD8E755
:100F80006FF01500D8E74FF0FF30D5E7B40400202C
:100F90001D09002038B504464FF02003EFF31185FA
:100FA00083F31188BFF36F8F01F0A5FE48B10022D3
:100FB000826701F059FE29460548BDE8384000F037
:100FC00077B8D4E902329A4218BF0133A360F2E73E
:100FD0001D09002013B54FF02004EFF3118184F3B5
:100FE0001188BFF36F8F846844B1013C846081F342
:100FF0001188BFF36F8F002002B010BD52EA0304C6
:1010000006D181F31188BFF36F8F6FF00F00F3E704
:10101000CDE900230246024800F0CEF8ECE700BF1D
:101020001D09002010B5084C23685BB1FDF71AFFBD
:1010300003462068054A0344BDE8104013610021BF
:1010400001F097BE10BD00BFEC040020B4040020E6
:10105000F8B504460D464FF02003EFF3118683F3F5
:101060001188BFF36F8F0F4B00214FF4004740F200
:10107000E73019614FF47A720023E4FB0701FBF7B4
:101080002DF9002C084B09DC1860084B1D60FFF798
:10109000C9FF86F31188BFF36F8FF8BD0228B8BF70
:1010A0000220F1E7B4040020EC040020E804002052
:1010B00049B9EFF3058030B9054B5A6A9B689A42EB
:1010C00001D0FDF7F7BE81F31188BFF36F8F704732
:1010D000B40400204FF02003EFF3118183F3118853
:1010E000BFF36F8F044B9A68D37B013BD37381F3BB
:1010F0001188BFF36F8F7047B404002038B50246E3
:101100000C480D4D01F080FD044600B9EC68AB6859
:101110004AB95A7BD20606D1A26922B9DA897F2A56
:1011200001D96B6238BD9C4201D0FFF77BFF6C6236
:10113000F8E700BFDC040020B404002008B590F9F3
:101140000D20437B002A014604DA03F07F0343733A
:1011500001F022FD044B9868431A58425841BDE8FB
:101160000840FFF7CBBF00BFB40400202DE9F041D9
:10117000064615461C464FF02003EFF3118783F314
:101180001188BFF36F8F01F045FD87F31188BFF31E
:101190006F8FB4F1FF3F08BFB5F1FF3F08D02A467B
:1011A000234606F118000349BDE8F04100F0E8BA13
:1011B000BDE8F081892C010010B5074B9868074BFA
:1011C0000C4618601146DDE90223FFF7CFFF2046E9
:1011D000BDE81040FDF76EBEB4040020E40400201A
:1011E00070B50446183001F09EFD4FF02003EFF378
:1011F000118683F31188BFF36F8F94F90D20637B01
:10120000002A05DA03F07F036373204601F0C4FC73
:101210000B4D637BA86843F010036373031B5842B4
:101220005841FFF76BFF86F31188BFF36F8FAB68F0
:10123000A34203D1BDE8704001F0DCBC70BD00BF2B
:10124000B404002010B54FF02003EFF3118483F3B2
:101250001188BFF36F8F084B9A68D37B0133D37328
:101260000020FFF74BFF84F31188BFF36F8FBDE8B9
:10127000104001F0BFBC00BFB404002070B590F96D
:101280000D20437B002A014604DA03F07F034373F9
:1012900001F082FC4B7B154A63F07F034B73D2E96C
:1012A0000A3402F12805AB421BD0D3B191F90E608C
:1012B00093F90E0086420FD0801B00280CDD586881
:1012C000C1E90030016059609068431A5842BDE896
:1012D00070405841FFF712BFA34202D01B68002B99
:1012E000E6D1C1E900542160D162EDE7B4040020E9
:1012F00038B501464FF02003EFF3118483F31188D2
:10130000BFF36F8F154B164A98681568A84206D12F
:10131000FFF788FE84F31188BFF36F8F38BD002577
:101320001560104A1268BAB1C2897F2A14D8427B6C
:10133000D20611D10C4A90F90E50126895420BDB7F
:101340000A4A904208D01A698A4202DCFFF796FFE7
:10135000DEE7521A1A61DDE70022FBE7B404002041
:10136000E4040020EC040020E80400201001002028
:1013700070B490F90D20437B002A2ADBDA0628D1CD
:10138000826932BB144A63F07F034373D2E90A34A3
:1013900002F12805AB4217D0B3B190F90E6093F972
:1013A0000E108E420BD0891B002908DD5A68C0E957
:1013B00000321060586070BC0020FFF79FBEA3424F
:1013C00002D01B68002BEAD1C0E900542060D06233
:1013D000F1E770BC704700BFB404002010B54FF0B7
:1013E0002002EFF3118482F31188BFF36F8F427BE9
:1013F000510704D484F31188BFF36F8F10BD22F01E
:1014000004024273FFF7B4FF21460248BDE81040D2
:10141000FFF74EBE1D090020F8B504464FF020032B
:10142000EFF3118683F31188BFF36F8F437BDA06E6
:1014300049B233D182698ABB03F07F03437301F061
:10144000ABFB437B174A817363F07F034373104602
:1014500050F8283F83421BD0D3B1D76A93F90E507E
:10146000A94210D06D1A002D0DDD5A68C4E9003272
:1014700014605C600120FFF741FE012086F31188B3
:10148000BFF36F8FF8BDBB4202D01B68002BE5D1C4
:10149000D36AC4E900031C60D462EBE7A1730020A7
:1014A000ECE700BFB4040020044B002103F1280244
:1014B000C3E90A220846FFF7CBBD00BFB4040020F1
:1014C000F8B54FF02003EFF3118583F31188BFF3D4
:1014D0006F8F1A498868437B03F07F03437301F0E1
:1014E0005BFB8B685A7B084662F07F025A7350F8A8
:1014F000282F82421CD0DAB1CF6A93F90E6092F99C
:101500000E40A6420FD0A41B002C0CDD5168C3E98D
:1015100000210B6053600120FFF7F0FD2846BDE875
:10152000F840FDF7C7BCBA4202D01268002AE6D1E3
:10153000CA6AC3E900021360CB62ECE7B40400207E
:1015400050EA01032DE9F04105460E4603D1FFF7AD
:10155000B7FF002033E06FF00104241A4FF0FF338F
:1015600063EB0103012C73F1000302DA01F01BFCB1
:1015700044194FF02003EFF3118883F31188BFF370
:101580006F8F104F104BB8681860FFF7D7FDB86821
:101590000E492A463346183000F0F2F8BA68537BF9
:1015A00043F0100353734046FDF784FC01F0FBFB4E
:1015B000201A63EB0303012873F10003C9DBBDE8C4
:1015C000F08100BFB4040020E4040020892C010055
:1015D000B1F1FF3F08BFB0F1FF3F08B506D1084B9E
:1015E0009868FFF7FDFD4FF0FF3008BDFFF7A8FF3B
:1015F0004FF47A7380FB0303C00B40EA4340F4E7E7
:10160000B4040020014B9868704700BFB404002068
:101610002DE9F04104464FF02003EFF3118683F3E8
:101620001188BFF36F8F437B1A0705D586F31188A6
:10163000BFF36F8FBDE8F08123F0200242F0080174
:10164000D20920D14173A36813B1204601F0ACFA4E
:1016500004F1180001F067FB04F158074FF000088F
:10166000A56DBD4200D0B5B90120FFF747FD104B75
:101670009B68A342DAD1EFF30583002BD6D1304625
:10168000FDF718FCD2E703F05F0343F00803437350
:1016900001F082FAD7E7284601F086FA05F1180032
:1016A00001F041FBC5F878802846FFF761FED7E7D7
:1016B000B404002008B50648064A0749121A01F08A
:1016C00070F8BDE80840054A0549064801F069B8C8
:1016D0000000002054000020203E01000000000017
:1016E000203E010000000020034B1B680BB9FDF7F2
:1016F000B9BB0020704700BFF0040020114B10B5AB
:101700001C689C4208BF0024FFF7EEFF03466CB143
:10171000D4E90402C01A62EBE373012873F10002FA
:101720000DDBB0F1004F73F1000301DB6FF00040FF
:10173000054B1B6913B19842A8BF184610BD002085
:10174000F6E700BF28000020B404002030B503688D
:1017500068B10A4A5268904209D043B1D3E90421E2
:10176000D0E90445121941EB0501C3E9042142689F
:1017700013605A600023C0E9003330BD2800002008
:10178000B3F1FF3F08BFB2F1FF3FF8B504461F4673
:10179000154667D081604FF02003EFF3118683F385
:1017A0001188BFF36F8F6FF00102531B4FF0FF3CA6
:1017B0006CEB0703002B1BDB2B4BD3E90013521AF6
:1017C0006CEB0303551B63EB0703012D73F1000260
:1017D000BCBF01250023C0E904532448D0E9003CE4
:1017E000834218D1C4E9000CCCF80040446026E0E4
:1017F000FFF77AFF013547F100072D1847EBE07737
:10180000C4E90457E9E7521A65EB07059C45C4E9AA
:101810000425E7D01B68002BE4D0D3E90417D4E9F2
:1018200004258A4275EB070EEDDA8A1A67EB050587
:10183000C3E904255A68C4E9003214605C60036897
:1018400083420BD09C4209D1FFF758FF18B1084BD7
:101850001B69834202D00021FDF7D2FA86F311887A
:10186000BFF36F8FF8BD00BF1002002028000020DA
:10187000B40400202DE9F8430546FFF739FD4FF089
:101880002003EFF3118483F31188BFF36F8F244E8D
:10189000DFF890803560244DD8F80000326840456C
:1018A000D5E9001E4FEAE2770BD050B1D0E9043CF5
:1018B0009A4277EB0C0916DA9B1A6CEB070CC0E91D
:1018C000043C52184EEB0707C5E900270025356098
:1018D000FFF714FF2946FDF793FA84F31188BFF34D
:1018E0006F8FBDE8F88359184EEBE377D31A336056
:1018F00000220023C0E90423C5E90017FFF726FFF3
:1019000084F31188BFF36F8F836898474FF02003EB
:10191000EFF3118483F31188BFF36F8FBCE700BF2F
:10192000F0040020280000201002002010B54FF025
:101930002003EFF3118483F31188BFF36F8FFDF75A
:1019400091FA054AD2E90031C01841F1000184F34F
:101950001188BFF36F8F10BD1002002038B5D0E999
:101960000A32013342F10002022B72F100030446F5
:1019700004D3D0E90A230D49FFF702FF236B01339B
:101980002363236A0BB12046984754F8185FA54299
:101990000AD04DB1284601F011F90023AB67284663
:1019A000BDE8384001F060B938BD00BF5D190100E5
:1019B0002DE9F041114605461846B0F1FF3F08BF3A
:1019C000B1F1FF3FDDE90623884607463CD0B3F17D
:1019D000FF3F08BFB2F1FF3F14461E4613D01A4323
:1019E00011D06FF00102121B4FF0FF3262EB0302C5
:1019F000002A08DA013C63F10006012C76F10003AD
:101A0000BCBF012400266FF001035B1A4FF0FF33C7
:101A100063EB0003002B08DA4A1E60F10007002F79
:101A20009046BCBF4FF000084746284601F07BF9BE
:101A300000232B63C5E90A4642463B462846034934
:101A4000BDE8F041FFF79CBEBDE8F0815D190100E3
:101A5000024A0349034800F03BB800BF3435010097
:101A6000E93D0100F83D01007047034658B1426866
:101A700002F00302012A03D0032A04D1026812B142
:101A80000020986070476FF01500704742688160D1
:101A900002F00302032A4FF0000203460CBF006865
:101AA00010465A6070470020704730B58A680C684D
:101AB000551C14B14B68934201DC8D6030BD013B75
:101AC000934208BF00228D600CBFE254A054F5E79A
