:1000000040540020F11F00001D4E0000452000005C
:1000100045200000452000004520000000000000B1
:10002000000000000000000000000000251E00008D
:10003000452000000000000000000000094E000004
:10004000C91F0000C91F0000C91F0000C91F000010
:10005000C91F0000C91F0000C91F0000C91F000000
:10006000C91F0000C91F0000C91F0000C91F0000F0
:10007000C91F0000C91F0000C91F0000C91F0000E0
:10008000C91F0000C91F0000C91F0000C91F0000D0
:10009000C91F0000C91F0000C91F0000C91F0000C0
:1000A000C91F0000C91F0000C91F0000C91F0000B0
:1000B000C91F0000C91F0000C91F0000C91F0000A0
:1000C000C91F0000C91F0000C91F0000C91F000090
:0C00D000C91F0000C91F0000C91F00006C
:1000DC0053B94AB9002908BF00281CBF4FF0FF31A3
:1000EC004FF0FF3000F074B9ADF1080C6DE904CE9F
:1000FC0000F006F8DDF804E0DDE9022304B07047F7
:10010C002DE9F047089E0D4604468846002B4DD13C
:10011C008A42944668D9B2FA82F252B101FA02F3D9
:10012C00C2F1200120FA01F10CFA02FC41EA0308A9
:10013C0094404FEA1C45210CB8FBF5FE1FFA8CF7D6
:10014C0005FB1E8341EA03430EFB07F199420BD9D1
:10015C001CEB03030EF1FF3080F01E81994240F23C
:10016C001B81AEF1020E63445B1AA4B2B3FBF5F033
:10017C0005FB103344EA034400FB07F7A7420AD9F6
:10018C001CEB040400F1FF3380F00881A74240F21D
:10019C00058164440238E41B40EA0E4000211EB184
:1001AC00D4400023C6E90043BDE8F0878B4208D950
:1001BC00002E00F0EE800021C6E900050846BDE8DF
:1001CC00F087B3FA83F100294AD1AB4202D38242C1
:1001DC0000F2F980841A65EB030301209846002E87
:1001EC00E2D0C6E90048DFE702B9FFDEB2FA82F2DC
:1001FC00002A40F09180A1EB0C054FEA1C471FFA36
:10020C008CFE0121B5FBF7F307FB1350250C45EAD7
:10021C0000450EFB03F0A84208D91CEB050503F1C1
:10022C00FF3802D2A84200F2CB8043462D1AA4B26A
:10023C00B5FBF7F007FB105544EA05440EFB00FE36
:10024C00A64508D91CEB040400F1FF3502D2A645E3
:10025C0000F2BB802846A4EB0E0440EA03409EE764
:10026C00C1F120078B4022FA07FC4CEA030C20FA60
:10027C0007F405FA01F31C43FD404FEA1C4900FA50
:10028C0001F3B5FBF9F8200C1FFA8CFE09FB18558D
:10029C0040EA054508FB0EF0A84202FA01F20BD920
:1002AC001CEB050508F1FF3A80F08880A84240F26B
:1002BC008580A8F1020865442D1AA4B2B5FBF9F0AB
:1002CC0009FB105544EA054500FB0EFEAE4508D966
:1002DC001CEB050500F1FF346CD2AE456AD902382F
:1002EC00654440EA0840A0FB0294A5EB0E05A5422C
:1002FC00C846A64656D353D05EB1B3EB080265EBA5
:10030C000E0505FA07F722FA01F3CD401F43C6E9A3
:10031C0000750021BDE8F087C2F1200320FA03F13B
:10032C000CFA02FC25FA03F395400D434FEA1C47E7
:10033C001FFA8CFEB3FBF7F107FB11302B0C43EAD1
:10034C00004301FB0EF0984204FA02F408D91CEBAE
:10035C00030301F1FF382FD298422DD9023963449F
:10036C001B1AADB2B3FBF7F007FB103345EA03459C
:10037C0000FB0EF3AB4208D91CEB050500F1FF386E
:10038C0016D2AB4214D902386544ED1A40EA014149
:10039C0038E73146304607E78646E5E61846FAE682
:1003AC004B45A9D2B9EB020864EB0C0E0138A3E75C
:1003BC004046EAE7204694E74146D1E7D0467BE742
:1003CC00023B654432E7084609E76444023842E7D9
:1003DC00704700BF7FB5314B314AC3F80026314816
:1003EC00C3F804264921C3F80826C3F80C26C3F821
:1003FC001026C3F81426C3F81826C3F81C2604F0DC
:10040C00ADFB00F07DF8284800F05EF828B9264ACC
:10041C002648452104F0A2FBFEE701A800F0D0FC21
:10042C00234B1B68834204D02248452104F096FBE1
:10043C00FEE7039A2048492104F090FB1F4849210C
:10044C0004F08CFB4FF44041002004F041FF20B13C
:10045C001B48452104F082FBFEE769469DF8080025
:10046C0000F03EF8009B039C1C44019B1D8904F08A
:10047C00C6FC661900F040FF4FF02002EFF3118329
:10048C0082F31188BFF36F8F635983F30888736805
:10049C0098470C48452104F061FBFEE70000014041
:1004AC003546526EB8710000D1710000E471000045
:1004BC00DC00002003720000267200005572000060
:1004CC007A720000AD72000010B5044C236813B9A9
:1004DC0003F016FF2060206810BD00BFD80000207C
:1004EC0008B5024638B105480023452104F036FB17
:1004FC006FF0150008BD0860FCE700BFD07200006B
:10050C0002484FF4C05103F0C5B900BF0C0F0020D6
:10051C002DE9F04FF9B0DDE98448DFF8E4A138A803
:10052C00DAF8006017461D4606F0A6FA002138A836
:10053C0003F0C0FA3CB1B8F1000F04DD424621468D
:10054C0038A806F09DFA7B89B7F808809844FB68B8
:10055C004FF000099844C8454BD80DA938A806F0AF
:10056C00CCFA869B23B120220DA9184604F085FCF9
:10057C00002300932A464FF6FF73394607A803F071
:10058C00AFFF0446002840F0B580DFF87891804634
:10059C004FF0FF370DF1160305AA06A907A803F0C3
:1005AC00EBFF041EC0F2A68040F09780BDF816B099
:1005BC00BBF1100F34D1BDF81480B8F1200F40F00E
:1005CC0097800699434638AA284604F0F5FA044663
:1005DC00002840F08F80424638A90DA804F017F887
:1005EC000446494B1B68834240F084804FF001085D
:1005FC00D0E7DDF80CB2829AA8EB09039B4528BF23
:10060C009B465B464946284604F0D6FA0446002829
:10061C0070D182995A4638A806F032FAD9449AE732
:10062C00BBF1010F36D1BDF81430202B60D80699E0
:10063C0038AA284604F0C0FA044600285AD19DF87E
:10064C0014B0BBF1200F03D94FF0FF342746A1E7BC
:10065C00D9F800302D4F0393039B9C42F4DA1DA86C
:10066C0006F00AFA00211DA803F024FA7A6857F85C
:10067C00081B12681DA806F003FA15A91DA806F0A0
:10068C003CFA5A4638A915A804F0E6FB0028DDD040
:10069C000134E1E7BBF1200F7FF47CAF002F19DBB5
:1006AC00D9F80030BB4215DDBDF81430B3F5807FAE
:1006BC001ED1069938AA284604F07EFA0446C8B919
:1006CC00FFB2BDF81430009738AA59460DA800F0B7
:1006DC001FF806464FF0FF375CE7B8F1000F0DD05E
:1006EC00094B1B68B34201D0DAF80060344601E0D4
:1006FC004FF0FF34204679B0BDE8F08F0124F9E7C4
:10070C0000000020C86E0000DC000020CC6E000051
:10071C002DE9F04F9146ADF54B7D002298466B4B81
:10072C009DF850631D6807468A4627A8114606F0B7
:10073C005FF9674B53F83640029403EBC6038AAA61
:10074C005B6819680C443023214602A804F01EFF94
:10075C0068BB029B8A9A13449C4228D129AA214641
:10076C0002A804F027FF10BB0DF1B00B5A4621462E
:10077C0002A804F01FFF0646C8B929A805F02AFAFA
:10078C00029B28909C4212D1CDE9006B3346324635
:10079C0029A927A806F0E8F848B927A803F028F9F2
:1007AC0028B929A805F016FA804528900AD027A860
:1007BC0006F029F927A806F026F928460DF54B7DF9
:1007CC00BDE8F08FB8F5807F02D04FF0FF35F1E730
:1007DC00BAF1200FF9D18AAA494627A803F02CF9BF
:1007EC0004460028F1D19DF82733BC2BEDD10DF533
:1007FC00A4780390DF2645460CA806F03DF90021AD
:10080C000CA803F057F920220DF207310CA806F0C2
:10081C0037F9042203A90CA806F032F904A90CA894
:10082C0006F06BF91F2E9DF80F30D4BFB1464FF078
:10083C002009013340464A4604A9A6EB09068DF867
:10084C000F3004F01AFB002EC844D5DC28468AAEC3
:10085C002A46DF23117816F801CB013B81EA0C0103
:10086C0002F8011BF6D12B7803F07F032B7010F8E4
:10087C00016B002EA9D10134BE2CF8D195F8BE30F5
:10088C00012BA2D10CA806F0F7F831460CA803F006
:10089C0011F9104908220CA806F0F2F8394620226A
:1008AC000CA806F0EDF820220DF207210CA806F09A
:1008BC00E7F804A90CA806F020F920220DF2073164
:1008CC0004A803F0A4FE054681E700BF0000002049
:1008DC00CC6E0000F67200002DE9F04186B00223C8
:1008EC00DFF87080ADF800300D466F46002617F823
:1008FC00010B01A901F06EF80446D8B90198816882
:10090C00102302AA103904F057F9044628B10198B3
:10091C0004F051F90EE00126E9E71022414602A845
:10092C0004F09AFA50B1019804F045F9002EF2D077
:10093C004FF0FF34204606B0BDE8F081019804F07A
:10094C001BFD0423A0F108012A46019804F034F998
:10095C000446DCE7807000002DE9F041384B88B08C
:10096C00064600200D461C6803F0B1FD06A9C0B276
:10097C0001F030F8002857D1294603F0A8FD2C24AB
:10098C0007A9C0B204FB056401F024F8002836D096
:10099C004FF02C0808FB05F806EB0807396911F035
:1009AC00100137D14FF480730193264B00932246EC
:1009BC00CDE90311069B02910846FFF7A9FD0446F9
:1009CC00214B56F8082006989A420CD13A89FB68BC
:1009DC00D1438B4207D813448268934203D21B4BFA
:1009EC001B68A3421DD045B38268002104F033F983
:1009FC00174A1848452104F0B1F8012411E0079872
:100A0C0004F061F90746079804F0D5F8631EE21C60
:100A1C0093420DD1002DF0D00699304603F0EEFE36
:100A2C002C46069804F0C7F8204608B0BDE8F081C3
:100A3C0013F8011FB942EBD0AAE7074AD9E700BF68
:100A4C00000000200C2700203DB8F396DC000020AD
:100A5C00FE720000107300000873000073B50D46A1
:100A6C00044600212846CDE9001103F086FE30B380
:100A7C00164E2368B34203D101AA204603F012FE9E
:100A8C00E36AB34204D16A460121204603F00AFE10
:100A9C00DDE90032934288BF0193019BAB60019A60
:100AAC002946204600F02EFB094B1A68002A03DD6C
:100ABC000848572104F052F8002002B070BD05F12F
:100ACC000801FFF709FFAB680193E8E73DB8F3961F
:100ADC00400D0020387300002DE9F84FDFF870B09E
:100AEC001C4C1D4D884691469A4600260B9B9E42F7
:100AFC0001D300200FE00B9B154A9F1BB7F5806FAD
:100B0C0028BF4FF480673B4606EB0A01404604F0D1
:100B1C0053F810B10120BDE8F88F0A993B465A46AC
:100B2C007118484604F064F80028F3D1C4F8005654
:100B3C003E44C4F80456C4F80856C4F80C56C4F81D
:100B4C001056C4F81456C4F81856C4F81C56CDE701
:100B5C0040010020000001403546526E2DE9F04363
:100B6C008F4B85B0044660220F4600211E6804F0AE
:100B7C008FF98C4B636200218B4B2365084603F085
:100B8C00A6FC04F12001C0B200F024FF01210020DA
:100B9C0003F09DFC04F14C01C0B200F01BFF0546B4
:100BAC00204603F0C0FD804668B90022114620465D
:100BBC0003F060FD804600B37C480022572103F00F
:100BCC00CDFF012391E07A488022572103F0C6FF24
:100BDC000123984584F85830E7D194F858308DF8B3
:100BEC000730042B00F28480012B00F2888000F087
:100BFC009F80FF2384F858309AE0204600F09AF941
:100C0C000028DED0684603F0AFFD6946204603F0AD
:100C1C004AFE18B1674842465721D0E7684603F0B0
:100C2C00ACFD80F001016A46C9B2204603F022FDFA
:100C3C0002460028C0D1684603F09FFD804660BB89
:100C4C0069462046FFF70AFF9DF8073084F85830B4
:100C5C00033B012B06D8404603F072FE10B1FF2374
:100C6C0084F858309DF80730023B022B0BD800203B
:100C7C0003F054FE38B1FF2384F858304E48452118
:100C8C0003F06CFFFEE794F85830FF2BF6D06A4661
:100C9C000021204603F0EEFC93E79DF80790B9F194
:100CAC00010F17D1104602F035F9831E022B804636
:100CBC000DD849462046FFF74FFE404B1B68984223
:100CCC0005D001280CBF4FF001084FF0050884F83F
:100CDC00588082E701212046FFF73EFE374B1B6808
:100CEC0098420CBF9DF80730052384F8583074E700
:100CFC00052B7FF47EAF002003F022FE13E0694643
:100D0C002046FFF7ABFE94F85830DA1E012A054650
:100D1C000CD8002003F014FE054600287FF469AFC0
:100D2C00002003F0FBFD054610B162E7022BF7D063
:100D3C0094F85830FF2B04D11F48452103F00EFFC7
:100D4C00FEE7012B06D06A460021204603F092FCF8
:100D5C000546C0B900212046FFF7FEFD0646DFF828
:100D6C005C80D8F8003098420DD1102200216846E2
:100D7C0004F08EF8236AD8F800605A783A715B68F0
:100D8C00BB603C600025E06C03F015FF206A03F0AB
:100D9C0012FF002D14BF2846304605B0BDE8F08385
:100DAC00000000204005002040090020A97300002D
:100DBC0067730000D5730000FF730000DC00002097
:100DCC0008B501460148FFF7C9FE08BDE000002048
:100DDC0073B516461C4633B3436A5D686379012BC1
:100DEC0015D101BB1F4B22681B689A4298BF002586
:100DFC00002003F06CFB01A9C0B200F0EBFDF0B1D8
:100E0C000125019803F0D7FE284602B070BD022BD5
:100E1C0009D12368012B08D9124A1268934202D8CF
:100E2C00B1FA81F149090025E2E7FCD10029DFD0B4
:100E3C000129F8D12179023918BF0121F3E729469C
:100E4C0001982023324603F0B7FE05460028D7D17F
:100E5C00002CD6D0356804482D1A18BF4FF0FF353A
:100E6C00CFE700BF040000203DB8F3962DE9F04F0A
:100E7C00074685B00C4601460020164603F0CEFB13
:100E8C00051E51DB3846E46D03F0D5FB5FFA84F99F
:100E9C0005F1FF3809FB08084FF0000A4FF0010B71
:100EAC004FF0FF349DB9BAF1010F03DD2048452105
:100EBC0003F054FE631C06D07F2C2ADC013440F274
:100ECC0001133460B380284605B0BDE8F08F6B1E6B
:100EDC0000930DF10F0201234146384603F06CFEDE
:100EEC00031E019322DB01220DF10F01384604F0A1
:100EFC0054FA019B40B15B4501D00AF1010A009DF7
:100F0C00A8EB09089B46CDE7B4F1FF3F08BF2C4680
:100F1C00F5E70223803C7371631004F00104013384
:100F2C00013433603471CEE70725CCE70125CAE7DD
:100F3C000B740000816A426D8A4238B508D0531C8C
:100F4C008B4205D01348572103F008FE002038BD12
:100F5C0080291CD910485721F6E7446A056D04EB2B
:100F6C00C30405EBC30564686D68AC4202D00B4842
:100F7C005721E9E701339A42EFD1914205D9436AEF
:100F8C0003EBC2025368A342F1D10120DFE7002337
:100F9C001C46F0E72E740000667400009574000087
:100FAC0000B589B004A9022004F05AFA9DF810206B
:100FBC00012A41D0254B2649032A18BF0B469DF820
:100FCC00132002929DF8122001929DF811202148C5
:100FDC0000924921204A03F0C1FD06A9052004F026
:100FEC003FFA9DF81820012A28D0184B1849032ADB
:100FFC0018BF0B469DF81B2002929DF81A200192F7
:10100C009DF8192000921348144A492103F0A6FDBB
:10101C009DF81030012B13D19DF81230032B0FD1FA
:10102C009DF81830012B0BD00D48492103F096FD8B
:10103C00022009B05DF804FB0A4BC0E7094BD9E765
:10104C000948492103F08AFD0020F2E7C67400002C
:10105C00CC740000DE740000D07400001F7500001A
:10106C002F750000C17400004E75000070B54B6800
:10107C0014461E4A03F0FF23934286B006460D46E3
:10108C002FD10B68012B2CD104A9204601F0F2FEC4
:10109C009DF81020012A26D0154B1649032A18BF9B
:1010AC000B469DF8132002929DF8122001929DF898
:1010BC00112000921048114A492103F04FFD9DF870
:1010CC001030032B0DD12146304603F097FB204600
:1010DC0004F0BDF9A968204603F0BDFA204601F0E2
:1010EC00BBFE06B070BD064BDBE700BF0001000481
:1010FC00C6740000CC740000DE7400001F75000084
:10110C00C17400002DE9F04F436A0C465E6889B04B
:10111C0005460121002333449A42084601F101019E
:10112C00F9D8724B1860204603F027FBB8B1E86D74
:10113C0003F06FFAAB6A0022013B3244824201D2C7
:10114C00013BFAE7694A12689A4208D3684857216A
:10115C0003F004FD0123E37109B0BDE8F08F06A98B
:10116C00022000F037FC07A9052000F033FC079A99
:10117C0021462846FFF77AFF6379012B08D15B4B98
:10118C00DFF870B11F68594B1B68A7B901232360A6
:10119C004FF00203DFF85C8163710127534BDDF8DC
:1011AC0018901B689F424AD9484603F004FD0798E3
:1011BC0003F001FDD0E7226801339B1A9F423CD813
:1011CC006B6ADDF81880196853F8370003EBC70316
:1011DC00012A53F8083CA0EB0109A3EB010A12D138
:1011EC00E268079B022A0AD041462846039303F083
:1011FC0005FB22464146284603F036FB039B194665
:10120C00284603F0FBFA32464946404603F0F4FA0E
:10121C00534642464146CDE900962846FFF75CFC12
:10122C002146284603F0B6FA23680133236020B127
:10123C00DBF800300133CBF80030013FA3E7236823
:10124C009F4251D36A6ADDF81CA052F83710049102
:10125C00FB0011680391083B296DC8580968A0EB85
:10126C00010B217901293DD1D158039B3246C91A72
:10127C004846059103F0C0FA059900915B464A4631
:10128C00514601962846FFF727FC2146284603F0D5
:10129C0081FA4FF00203237120B1D8F800300133EA
:1012AC00C8F8003032465946504603F0A5FADDE93D
:1012BC00032349469B1ACDE900B652462846FFF750
:1012CC000BFC2146284603F065FA236801332360A2
:1012DC004FF00103237138B1D8F800300133C8F84E
:1012EC00003001E00229DDD0013757E7040000206F
:1012FC0065750000400D0020114A4FF0FF330121AD
:10130C005160C2F84833C2F8083302F5C04251604C
:10131C00C2F84833C2F8083302F598325160C2F86B
:10132C004833C2F80833A2F508320021C2F8001580
:10133C00C2F808334FF08042C2F80833704700BF40
:10134C0000B000400B6801330B60014B1B68184761
:10135C0008000020014B1860704700BF08000020F7
:10136C0007B50B46002102460191034801A900F084
:10137C00E5F803B05DF804FB511300002DE9F84FBC
:10138C00B0F8189019F00808044693460DD00129BE
:10139C000CBF49F0100949F02009A0F818908BF304
:1013AC001188BFF36F8FBDE8F88F09F00709022988
:1013BC0007D1204603F026FB0028F0D00128238B10
:1013CC004ED16769218B002F15DA256821F00701B2
:1013DC00C4E9008841F0010121830026218B01F032
:1013EC00070ACA4502D0A368002B5AD10DB9002EAA
:1013FC0071D0002356E001F007035A1F012A1ED8B2
:10140C0021F00701062B256889B2C4E900880AD1AE
:10141C003DB1638B2A46126801339BB2002AFAD184
:10142C00638341F002012183204603F0EBFA064668
:10143C000028D3D0238B43F020032383CDE7042B48
:10144C000CD121F0070189B22183204603F0DAFA8E
:10145C0005460028C1D041F0200121830025BCE7BE
:10146C00032809D1226923F00703166843F0060309
:10147C00238300252F46B1E7042806D1226923F0E7
:10148C000703566843F00403F2E7052806D12269E6
:10149C0023F00703966843F00503E9E700252E4681
:1014AC00E8E7012341F0080121838BF31188BFF396
:1014BC006F8FFBB985BB16B11F492046B0474FF063
:1014CC002003EFF3118B83F31188BFF36F8F238B02
:1014DC0023F008032383238BDA0625D523F010038E
:1014EC0023830121B4F8189009F0070900297FF42F
:1014FC005EAF54E7A1680029DCD0D1F80090D1F898
:10150C0004B03B4652462046D847B9F1000FD1D023
:10151C004946D9F80090F2E729463B465246204608
:10152C002D6803F08BFAC5E713F020011EBF23F0E2
:10153C00200323830221D5E7754A00002DE9F04FE3
:10154C008FB01D46531E01908A4602934FF000083F
:10155C00029B5878252803F1010420D11E46002156
:10156C004FF0FF3702360B4603913C464FF00A0C06
:10157C0032780296392A06F1010659D81F2A18D852
:10158C00002A00F0FE81019B514625209847029BC2
:10159C0051461878019B984708F10208D8E70028B3
:1015AC0000F0EF81019B5146984708F10108029425
:1015BC00CEE7A2F120001928E5D80FF2080E5EF84C
:1015CC0020F000BF391600009315000093150000A1
:1015DC003916000093150000BD160000931500008D
:1015EC00931500009315000093150000FF160000E2
:1015FC00391600009315000011170000CB160000DF
:10160C0093150000D7160000F3160000F316000027
:10161C00F3160000F3160000F3160000F31600009A
:10162C00F3160000F3160000F316000011469FE7B6
:10163C00582A00F01781A2F163005FFA80FEBEF118
:10164C00170FA0D817289ED80FF2040E5EF820F0C2
:10165C00CD180000371700009315000093150000FB
:10166C0093150000171700003717000093150000A2
:10167C009315000017170000931500009315000038
:10168C00931500001D180000931500009315000021
:10169C00AF180000931500003717000093150000D9
:1016AC00931500001D18000093150000171700007B
:1016BC00019B51462520984708F1010848E7039AF9
:1016CC0002F0FE020392002752E7002C0BDA002FE7
:1016DC000BDA0398002800F04C8124EAE4740CFB2C
:1016EC000424303C44E7002FF7DB0CFB0727303F8A
:1016FC003EE7002F55F8042B80F23D81002A80F242
:10170C003C8154420222039232E7682A03D1682BAF
:10171C0006D148232CE76C2A02D16C2B00F02F81C8
:10172C00002B7FF430AF134622E77A2B06D155F805
:10173C00046B4FEAE679752A1AD112E06C2BF6D0BD
:10174C004C2B08D1073525F007031D46D3F8049020
:10175C0055F8086BEFE7752A55F8046B06D14FF076
:10176C00000920294DD1894B013C09E04FEAE6796B
:10177C00B9F1000FF5DA7642854B69EB4909013C6A
:10178C0000930DAB05934FF0000B304649460A22EF
:10179C000023CDF810B0FEF79BFC059BCDF81C90F8
:1017AC00303203F801293046CDE90536494600238D
:1017BC000A22FEF78DFC069B0A2B079B73F1000394
:1017CC000BF1FF3B06468946DFD2049BC3F1010BAC
:1017DC0038330DEB0306002FA6F1040604DA039B45
:1017EC0013F0010F18BF2746039BA7EB0B09B9F1A8
:1017FC00000FD4BFA4EB0B04E41B98077DD4274641
:10180C006EE02B290ABF634B634B04F1FF34B7E73F
:10181C00702A27D155F8040B0023002858D05F49B3
:10182C000091023C02F06002A2F139090DF1340E74
:10183C00002600F00F02092A88BF4A4430320EF805
:10184C00012910284FEA101242EA03724FEA1311D1
:10185C0073F1000306F1FF3C1FD2C6F1010B06F138
:10186C003803B6E76C2B03D155F8040B002308E0C2
:10187C004C2BF9D1073525F007031D465B6855F84D
:10188C00080B232906D1464E444912F0200F08BFFD
:10189C003146C5E740490091C4E7664610460B4601
:1018AC00C7E755F8046B304603F0C3FA002F8346A4
:1018BC0002DBB842A8BFBB46374B0093002793E727
:1018CC0055F8043B8DF820304FF0010B08AEF3E7D0
:1018DC00344E4FF0050BEFE7019B51462020984703
:1018EC00013FF9D5631E591CACBF22460022C4F13E
:1018FC000004B8BF002490441C44009FA8EB0703CD
:10190C0004E000935146019B9847009B03EB0708AA
:10191C0017F8010B0028F4D14F46013F19D509F1F6
:10192C00FF330133B8BF4FF000095F46013F15D5B7
:10193C000BF1FF330133B8BF4FF0000BD9442646EF
:10194C00013E11D5631E0133B8BF0024A144C84425
:10195C00FEE5019B514630209847DEE716F8010B57
:10196C00019B51469847E1E7019B5146202098473F
:10197C00E6E70122C7E61746FAE51446F8E54C23DC
:10198C00F6E540460FB0BDE8F08F00BF4F7A00007F
:10199C00A2760000A4760000927D0000A9760000DB
:1019AC00A6760000AC760000084B30B51C68084BDE
:1019BC0001461A6800239C4201DC002030BD104611
:1019CC00103205788D42F9D00133F4E7A06F000096
:1019DC000C000020084B1B6810B50C462BB1FFF710
:1019EC00E3FF28B12060002010BD6FF00C00FBE776
:1019FC006FF00100F8E700BF0C00002030B589B093
:101A0C000C4615460190FFF7CFFFB8B1436802931F
:101A1C0083682268C068CDE903350023CDE906232D
:101A2C00059303F0A8F860B1074901AA03F0AEFAD8
:101A3C00079808B9059B236009B030BD6FF01500FD
:101A4C00FAE76FF01200F7E7874B00000A2838B569
:101A5C00064D044603D128680D2103F03DF9286892
:101A6C00E1B203F039F9204638BD00BF440D002027
:101A7C0010B50748074C02F043FC074B1860204692
:101A8C0000F0A8FD2046FFF765FC002010BD00BF4C
:101A9C00B2760000591A0000440D0020084B70B5B6
:101AAC00C31A0D4607499B10044659430648402269
:101ABC0003F031F92B4601462046BDE8704018472B
:101ACC005C0D0020B76DDBB6986C000073B50C4C48
:101ADC000C4A4023041B00930D460B460A49A410E4
:101AEC0061430646094803F043F9011E05DA304606
:101AFC002B4602B0BDE87040184702B070BD00BF65
:101B0C005C0D0020F14D0000B76DDBB6986C000049
:101B1C00002270B501210446104600F0ABF90020FC
:101B2C0000F08AF90F4801F0D5FB0F4B984215D104
:101B3C0003F0CAFC26690D49304602F0B2FF0028BA
:101B4C000BDB246909490125356404F11C0002F002
:101B5C00A8FF002801DBE564002070BD6FF00400D5
:101B6C00FBE700BFB11B00000000AD0B046F0000D1
:101B7C0001460C2309484B4370B5C418D4E90E56E2
:101B8C0000224033A263184403F0B2F82DB1324660
:101B9C002B460348BDE87040184770BD5C0D002013
:101BAC00986C000010B1012804D07047034B1B6CDB
:101BBC005B0701D1FFF7DCBF704700BF5C0D002055
:101BCC0008B54FF02003EFF3118183F31188BFF3B5
:101BDC006F8F124A136843F0020013F00103106078
:101BEC000CD04FF08042D2F80C34D2F80C2413F005
:101BFC00010303D00A4803F07BF8012381F3118819
:101C0C00BFF36F8F23B1BDE808400020FFF7B0BFD2
:101C1C00BDE80840012001F06DBB00BFAC0D0020F9
:101C2C009C0D002010B5074C23782BB94FF4A570F0
:101C3C0004F0FEFF01232370BDE81040002001F0EA
:101C4C0059BB00BF0C280020094BBFF35B8F53E836
:101C5C00002F22F0020143E800100028F7D1BFF357
:101C6C005B8FD30702D4012001F08CBB704700BFFF
:101C7C00AC0D00202DE9F8433749BFF35B8F0746C5
:101C8C00012251E8003F41E800200028F9D1BFF3C0
:101C9C005B8F33B9314932484B60CB608A6002F0BC
:101CAC0013FF7B1E012B31D8012F07D14FF080433E
:101CBC00D3F81C3403F00303012B27D004F0B2FF3C
:101CCC00044618B9274B1B78002B3DD14FF020034D
:101CDC00EFF3118683F31188BFF36F8F0124DFF8C4
:101CEC0088904FF080454FF00108D5F81834D5F89E
:101CFC001824D2030CD503F00303012B01D0012FC0
:101D0C0006D1DCB186F31188BFF36F8FBDE8F88381
:101D1C00304600F0FBF8D5F81835002BE5D1D5F896
:101D2C000421002AE1D0C5F80431D5F80431C5F8F6
:101D3C001885C9F88081C5F80880D6E74FF0804334
:101D4C000222C3F80423E1E74FF080430222C3F8D8
:101D5C0008230646C3E700BFB00D00204C0D002041
:101D6C00780D00203F2C002000E100E070B5154DEF
:101D7C00154C00262B68002006B170BDD4F8042346
:101D8C00D203FAD5D4F84021002AF6D0C4F8406129
:101D9C00D4F840214FF48032C4F84823D4F84015CD
:101DAC00D4F80465721A22F07F42B2F5000F88BF96
:101DBC00314601261BB16A6828609847DAE72B6028
:101DCC00DBE700BFB80D00200010014038B50F4C08
:101DDC0000254FF48033C4F80855C4F804330C4B79
:101DEC004FF40032C3F8802101212A46112000F063
:101DFC0041F8112000F020F80123064AA3600220CC
:101E0C0023601360FFF736FF284638BD00100140F1
:101E1C0000E100E0C00D00201EF0040F0CBFEFF33A
:101E2C000880EFF30980816911F8021C0229FFD0A8
:101E3C0001B502F0E9FF01BD43B2002B08DB012222
:101E4C0000F01F0002FA00F05B09024A42F823007E
:101E5C00704700BF00E100E0054B420900F01F0095
:101E6C0053F82220012303FA00F01040704700BF02
:101E7C0000E100E043B2002BA8BF03F1604301F185
:101E8C000101B8BF064B4FEA4111ACBF03F56143EA
:101E9C0000F00F00C9B2B4BF195483F80013704797
:101EAC0014ED00E010F1160F074B08D0984208D340
:101EBC002033834205D98B4203D904487047203321
:101ECC00F9E70020704700BF402C0020602C002058
:101EDC0004462025084611461A46084B83F3098808
:101EEC0063B64FF0000383F31188BFF36F8FA047E5
:101EFC0085F31188BFF36F8FFEE700BF605400209D
:101F0C00014910220A60704710ED00E072B649409A
:101F1C0081F3118820BF80F3118862B6704700BF2F
:101F2C0037B505460C46C9B18B680093D1E900233F
:101F3C000E48452102F012FE63690093D4E9032395
:101F4C000B48452102F00AFEE2690A48452102F0DD
:101F5C0005FEA2690848452102F000FE21462846EC
:101F6C0003B0BDE8304002F0F5B900BFE3760000E5
:101F7C00177700004B7700005F77000030BFFFF74A
:101F8C00FDBF00BF0B4A08B50B4B22F07F029A60D5
:101F9C00BFF34F8FBFF36F8FD3F8882022F47002FA
:101FAC00C3F8882002F014FA02F06AFA00F05AFA28
:101FBC0002F030FA0000000000ED00E001B5EFF394
:101FCC000580A0F110004FEAC0000449014409C982
:101FDC009847BDE80140024908470000106D000019
:101FEC00E5230000002080F31488BFF36F8F04F00A
:101FFC0023FE00200D490860BFF34F8F0C4880F37F
:10200C00088800F0FDF9202080F3118809484FF46E
:10201C000261401880F30988EFF314800221084311
:10202C0080F31488BFF36F8FFFF7ACFF94ED00E0E3
:10203C004054002060540020EFF30880EFF3098136
:10204C0001B5724600F018F901BD00BF2DE9F04151
:10205C002E4C074688462E484521154602F07EFD3B
:10206C00A36ADE0603D52B48452102F077FDA36A4F
:10207C00180703D52848452102F070FD234CA36AAC
:10208C00990721D46FF01506204CA36ADB0703D502
:10209C002248452102F062FDA36A980603D5204828
:1020AC00452102F05BFD194B9A6AD10621D49A6A3C
:1020BC0092071ED40020154A936A43F0FF039362E3
:1020CC0000232B70BDE8F0811648452102F046FD37
:1020DC00666BA36A1A06D5D513483246452102F021
:1020EC003DFDB8F1000FCFD0A36A23F08003A362AB
:1020FC00CAE75B681B05DDD539463046FFF7D2FED3
:10210C000028D7D080F309880220D4E700ED00E046
:10211C0092770000AD770000E5770000357800007D
:10212C0059780000FD7700001A78000010B51D4C9E
:10213C001D48452102F012FDA36A9B0103D51B48E3
:10214C00452102F00BFDA36ADC0103D5184845219B
:10215C0002F004FD134CA36A180303D5154845215E
:10216C0002F0FCFCA36A590303D51348452102F085
:10217C00F5FC0C4CA36A9A0303D51048452102F0D8
:10218C00EDFCA36ADB0303D50D48452102F0E6FC08
:10219C00044A936A6FEA03436FEA13439362002085
:1021AC0010BD00BF00ED00E08D780000AA780000A3
:1021BC00C2780000E1780000047900002E7900005C
:1021CC004D79000070B5234C06460D46224845213A
:1021DC0002F0C4FCA36AD90403D52048452102F0BF
:1021EC00BDFCA36A1A0503D51D48452102F0B6FCB7
:1021FC00184CA36A9B0510D51A48452102F0AEFC79
:10220C00A26BA36A180408D51748452102F0A6FC56
:10221C001EB1A36A23F40043A3620E4CA36A5905B2
:10222C0003D51248452102F099FCA36ADA050BD5B7
:10223C000F48452102F092FC064A936A002043F4B1
:10224C007F439362287070BDA36A9B04F4D5094840
:10225C004521EFE700ED00E07D7900009879000062
:10226C00E5770000AE790000CC790000E67900003B
:10227C00067A0000597800002DE9F041494B5E6860
:10228C008AB00F46C6F30804002585F31188BFF306
:10229C006F8F02F07F43B3F17F4F07D102F00C0335
:1022AC00082B05D14048452102F058FC2F4603E08D
:1022BC00120701D4074601254FF00008E31E8DF8E4
:1022CC000780092B5BD8DFE803F0054F53335A5ACC
:1022DC005A5A5A57334E3548452102F03FFCF46A9E
:1022EC008DF8078014F0020405D03148452102F026
:1022FC0035FC00241FE0F36A5B001CD52D484521FA
:10230C0002F02CFC96F8283033B10DF107020121B4
:10231C003846FFF79BFE0DE096F829302BB10DF1F6
:10232C0007010120FFF74EFF04E0738D9BB213B140
:10233C00FFF7FCFE04469DF8073093B9202239467E
:10234C0002A802F09AFD099B35B3C3F3080222B927
:10235C006FEA53236FEA4323099302A92046FFF740
:10236C00DFFD0AB0BDE8F0810DF107020021CFE7D7
:10237C000DF107010020D5E70F484521B7E70F49BC
:10238C000F4A104816F4F87F08BF0A46A4F1100350
:10239C00452102F0E3FBACE723F4FF7323F00103C8
:1023AC00DAE700BF00ED00E0517A0000817A00000E
:1023BC009D7A0000C37A0000E77A0000237A0000BF
:1023CC00387A0000107B0000024A536943F0100376
:1023DC005361704700ED00E0704700BF0749D1F82A
:1023EC0090200023C2F307221846934200D1704775
:1023FC00C1F89830C1F8A0000133F6E700ED00E019
:10240C0008B572B6002383F31388FFF7E7FF144B6C
:10241C004FF0FF32C3F88020C3F88420C3F8882023
:10242C00C3F88C20C3F89020C3F89420C3F89820EC
:10243C00C3F89C20C3F88021C3F88421C3F88821F9
:10244C00C3F88C21C3F89021C3F89421C3F89821C8
:10245C00C3F89C2162B6BFF34F8FBFF36F8F08BDDB
:10246C0000E100E0044800232021C2180133272B8F
:10247C0082F80013F9D1704700E100E0024B034AE7
:10248C000348022100F06CB800000120000000207D
:10249C00A46F0000F8B5244F154600228A420EDACC
:1024AC004468002C3CD093B104F1FF3C14EA0C0FAF
:1024BC0007D01E48452102F051FB6FF01505284648
:1024CC00F8BD1F2CF5D906681CEA060FF1D1202C9B
:1024DC000668D0F808C0EDB210D9B4F1004F0FD88F
:1024EC00013CB4FA84F4C4F11F046400072D4CEAD7
:1024FC00040407D90E482A464521DCE70824F5E7F1
:10250C003E24F3E726F01F062E4346F0100644F057
:10251C000104C7F89850C7F89C600135C7F8A04073
:10252C0001320C30BAE700BF00ED00E02C7B00005C
:10253C00547B0000044B0522C3F89420BFF34F8F4B
:10254C00BFF36F8F704700BF00ED00E0BFF35F8FEC
:10255C00024B0022C3F89420704700BF00ED00E04E
:10256C0010B5034C01232278FFF794FF207010BDA7
:10257C000D28002014490868082810B521D8FFF749
:10258C00E5FF124C49680022904201F10C0105D183
:10259C000F4B1870FFF7CEFF002010BDC4F8982029
:1025AC0051F80C3C23F01F03134343F01003C4F801
:1025BC009C3051F8043C43F00103C4F8A0300132C4
:1025CC00E2E74FF0FF30E8E7BC6F000000ED00E001
:1025DC000D280020014B1860704700BF1000002030
:1025EC004FF02003EFF3118283F31188BFF36F8F49
:1025FC0006490123C1F840354FF08041C1F87835C8
:10260C0082F31188BFF36F8F0020704700E0014008
:10261C004FF08043C0B2C3F81C05BFF34F8F054980
:10262C00054BCA6802F4E0621343CB60BFF34F8FD3
:10263C0000BFFDE700ED00E00400FA0520B1034BFC
:10264C00800143F001031847704700BFC06E0000C3
:10265C0008B5094B1A786AB90121197006200521B1
:10266C00FFF708FC0620FFF7E7FB044B4FF0004296
:10267C00C3F80423002008BD0E2800200060004091
:10268C00F7B5174642680669127A01F01F04B7F5D0
:10269C00A03F0D4644EA42140CD104F01F0202F58F
:1026AC00E0724FF0A04151F82220D00707D56FF00F
:1026BC0085009AE0B7F5005FF16800F09880F26849
:1026CC000121A94011437269F1600121A940B7F5BC
:1026DC00A03F0CBF0A438A437261B269B3F5C02FA5
:1026EC000CBF0A438A43B2613269B3F5802F0CBF29
:1026FC00114322EA01014A4A3161D2F80433002025
:10270C00DBB200F5A27152F82110C1F304218C4206
:10271C0072D123FA00F1C9076ED5830003F180430F
:10272C0003F5C043D3F8101521F00101C3F81015BF
:10273C0001238340C2F80833C0B200F093FE204658
:10274C00002102F0B1FBF068E84010F001004CD021
:10275C007069E84010F0010255D0B369EB40DB071B
:10276C005FBF316921FA05F505F00105C5F10205D8
:10277C000DF1070054BFEDB2032500F093FE294B79
:10278C0098423DD19DF80720930003F1804303F557
:10279C00C0432402D3F8101521F4473121F44071C1
:1027AC00C3F81015D3F8101504F4F8540C4344EA8C
:1027BC000545C3F81055930003F1804303F5C2435C
:1027CC00002018609DF807101B688B0003F18043F4
:1027DC0003F5C043D3F8102542F00102C3F81025CD
:1027EC000F4A01238B40C2F8043303B0F0BD012221
:1027FC00AA4021EA020166E70130082881D19EE750
:10280C006FF01200F1E73169E94001F00101C1F10B
:10281C0003012046C9B202F047FB1046E5E700BFB2
:10282C00006000400000AD0B2A4B70B546682A488A
:10283C00134083423ED00DD8062B15D005D89BB142
:10284C00022B39D06FF0150033E0B3F5801FF9D1AE
:10285C00012309E02148834230D0B3F5A00F2FD0DB
:10286C00B3F5800FEED10223D00654BFC2F340154E
:10287C00032582F4807412F4007FC2F34020C4F369
:10288C00002407D012F4006F76681BD001228A4016
:10289C00C6F8082540EA440201F01F0142EA03236E
:1028AC0001F5E0714FF0A04243EA850342F8213074
:1028BC00002070BD0723D7E70423D5E70523D3E712
:1028CC000323D1E7520542BF01228A40C6F80C25EA
:1028DC00E0E700BF0600F000060010000200400018
:1028EC002DE9F843414BD3F87C51002D59D0404B86
:1028FC004FF0A049D3E90521DF68D9F810451B69D1
:10290C000A4327EA02075C4027EA04043A460126F8
:10291C004FF0000882BB354BC3F87C21D3F87C31D7
:10292C00344A3248002301261F46D0F8041306FA15
:10293C0003FC1CEA010F0CD0116851B103F5A27114
:10294C0050F821101760C1F3042106FA01F10C4371
:10295C0011680133082B02F10402E6D11CBB4DB106
:10296C00234ED6E90531F2680B4322EA0302012417
:10297C0000254ABBBDE8F88316420ED03E4208F053
:10298C001F0008BF00F5E0734FF0000108BF59F8B5
:10299C00233002F089FA22EA060208F101087600D7
:1029AC00B8E72C46BCE7124B59680029D7D00E6803
:1029BC00114F8A68224002D04B6838469847002E47
:1029CC00CDD031463668F4E714420CD03169E94079
:1029DC0001F00101C1F10301C9B205F01F0002F0C1
:1029EC0063FA22EA040201356400C2E70060004089
:1029FC00C80D002000610040E06C0000024B0B6031
:102A0C0001231360704700BFE80D00200048704799
:102A1C0024700000F8B50E46144602F065FD214600
:102A2C000546304602F09FFA3746F8B1B6FBF5F38F
:102A3C0005FB136323B9B4FBF5F005FB104040B163
:102A4C000D4823463246452102F088F86FF01500F8
:102A5C000BE0A54209D802F047FD0546384600F0C8
:102A6C0065FD641B2F44F9D12046F8BD034823466D
:102A7C0032464521E8E700BF997B0000BD7B000092
:102A8C0010B502F035FD034C206002F02DFD6060A6
:102A9C00002010BDE80D002070B50D4628461946E3
:102AAC0016461C4602F05FFA40B9094823462A46EE
:102ABC00452102F053F86FF0150070BD34B1224679
:102ACC002946304602F0D9F90020F6E72046F4E713
:102ADC00BD7B0000F8B50E463046194617461C461D
:102AEC0002F041FA40B9144823463246452102F01F
:102AFC0035F86FF01500F8BD44EA060515F003052E
:102B0C0004D00E48234632464521F0E78CB124F020
:102B1C000304AC4205EB060006D1094AD2F8003496
:102B2C00DB07FBD50020E6E7795900F01FFD0435E3
:102B3C00EFE72046DFE700BFBD7B0000DF7B000036
:102B4C0000E00140F8B5066905460F4604F06AF846
:102B5C0010B91E4B1B78A3B94FF02003EFF311846F
:102B6C0083F31188BFF36F8F686802F003FB00BB1F
:102B7C0084F31188BFF36F8FEEE784F31188BFF3F2
:102B8C006F8F6424686802F0F5FA28B9012002F00E
:102B9C0099FC013CF6D1F4E74FF02003EFF31184DC
:102BAC0083F31188BFF36F8F686802F0E3FA002893
:102BBC00E3D03146012201F8147F686802F0BFFAB5
:102BCC0084F31188BFF36F8FF8BD00BF3F2C00203A
:102BDC0070B54B79012B24D18B79032B21D1CC7976
:102BEC002CB1012C1DD143685B689B0719D00A7965
:102BFC0012B1022A15D10E220B684568B3F5164F97
:102C0C002D6862D02BD8B3F5165F61D014D8B3F50C
:102C1C00966F5FD008D8B3F5967F5ED0B3F5167F6C
:102C2C005ED06FF085004FE0B3F5166F5BD0B3F557
:102C3C00965FF6D1364B3CE0B3F5E14F56D007D852
:102C4C00B3F5615F54D0B3F5964FEAD1314B30E018
:102C5C0047F61226B342E4D14FF4000329E0B3F552
:102C6C00613F47D013D8B3F5963F46D009D84DF6FF
:102C7C00C026B34243D0B3F5614FD2D14FF46B03AE
:102C8C0017E0B3F5E13FCCD14FF0EB7311E0B3F5A6
:102C9C00612F37D008D8204EB34236D0B3F5E12F90
:102CAC00BFD14FF0E86304E01C4EB342B9D14FF0F2
:102CBC008053C5F82435036903C922430433C5F88E
:102CCC006C2583E80300002070BD4FF41D03F0E772
:102CDC00134BEEE74FF49E23EBE74FF4A033E8E7FA
:102CEC004FF41C33E5E74FF41D23E2E70D4BE0E70F
:102CFC000D4BDEE74FF06C73DBE70C4BD9E74FF471
:102D0C006503D6E74FF07063D3E74FF08063D0E7ED
:102D1C0000B0130000A04E0090D0030040420F0002
:102D2C000050270000C0750000F03A0000903A01F6
:102D3C00F8B50022054601210220FFF79BF802207E
:102D4C00FFF77AF86B682E691C680023C4F800350D
:102D5C0031464FF0A043402241F8045B0C20C3F8ED
:102D6C00082506270322C3F81827C3F82007C4F840
:102D7C000C750827C4F81475C3F81C072020C3F879
:102D8C000805C3F814270523C4F808350723C4F82D
:102D9C0010352846FFF71CFF074680B96B685B6847
:102DAC00190721D506F1160000F0EEFB224B9842D4
:102DBC0007D02248452101F0D1FE6FF004073846B8
:102DCC00F8BDB07DC30003F1804303F5F83304F183
:102DDC000C0204F59071C3F81015C3F81425184AA9
:102DEC0001238340C2F804350823C4F800350023BE
:102DFC00C4F81031D4F8103106F11503C4F8343589
:102E0C000123C4F8383523606B685B681A075CBF14
:102E1C004FF48072C4F80423DB0644BF4FF48003E4
:102E2C00C4F8043314360023C4F84465C4F8483598
:102E3C000123A360E360C2E70000AD0B0C7C000033
:102E4C0000F00140034808B5452101F087FE002041
:102E5C00FFF7DEFB407C00008168054A08B510399D
:102E6C00102301F0C5FE003818BF012008BD00BFBB
:102E7C008070000030B50C46816887B0102302AA20
:102E8C001039054601F098FE002802DA012007B03F
:102E9C0030BD102202A9284602F05DFA68B3032364
:102EAC002370A96801230DF107022839284601F087
:102EBC0083FE0028EADB9DF8073003F00F021B09A4
:102ECC006270237101220DF10701284602F043FACA
:102EDC0010B96378042B03D9012363700023237189
:102EEC00AA68A11C203A284602F05DFA0028CDD130
:102EFC00E11C284602F0B0FAC9E70549102202A8E5
:102F0C0001F0AAFF002814BF02230123C8E700BF69
:102F1C00807000002DE9F04385B00646694602201A
:102F2C0002F09EFA054618B1FF2005B0BDE8F0830B
:102F3C0002A9052002F094FA012804463FD12D483D
:102F4C003246492101F00AFE03238DF808308DF832
:102F5C0009408DF80A308DF80B308DF80C509DF827
:102F6C0000509DF808609DF803709DF80B809DF84B
:102F7C000290214C00222078294602F000FA18B366
:102F8C006078314602F0FBF9F0B1A378042B01D044
:102F9C00BB4219D1E378042B01D0434514D12379DA
:102FAC00042B0FD16379022B19D1144A14484921EF
:102FBC0001F0D4FD6079831E022BB6D9B4E700284A
:102FCC00CDD0B1E74B45EDD00132032A04F1060414
:102FDC00D1D10C48492101F0C1FD0120A5E7032BFB
:102FEC0005D0094A0949042B18BF0A46DEE7084AEE
:102FFC00DCE700BF857C0000F87C0000697C0000E9
:10300C00D07C0000E37C0000627C0000737C00003C
:10301C006E7C00004FF0704393F8E02F062A09D124
:10302C00D3F8E83FC3F30313033B042B02D8024A43
:10303C00D05C704700207047197D0000024AD2F81E
:10304C000034002BFBD0704700E0014010B502F0BB
:10305C002AFA40B14FF08053904AD3F82433C3F38B
:10306C000423C2F84035FFF7D5FF10B18C4B8D4AC5
:10307C005A6702F018FA48B14FF080534FF0804273
:10308C00D3F84432C3F34233C2F83C35FFF7C2FFE6
:10309C0030B1854AD2F8FC3023F08073C2F8FC3092
:1030AC0002F001FA40B14FF080430022C3F80C212A
:1030BC00C3F81021C3F83825FFF7ACFF20B14FF04F
:1030CC0080430322C3F8A025FFF7A4FF60B1774B20
:1030DC000522C3F810260122C3F888260022C3F863
:1030EC0018263F22C3F814264FF08053D3F8302112
:1030FC00511C09BF4FF07043D3F8343193F8E02FD3
:10310C00D3F8E83F08BFC3F30313062A4DD1033BA2
:10311C00042B03D8664AD35C002B46D04FF0805268
:10312C00644BD2F80414C3F82015D2F80814C3F871
:10313C002415D2F80C14C3F82815D2F81014C3F8BF
:10314C002C15D2F81414C3F83015D2F81814C3F88F
:10315C003415D2F81C14C3F84015D2F82014C3F857
:10316C004415D2F82414C3F84815D2F82814C3F81F
:10317C004C15D2F82C14C3F85015D2F83014C3F8EF
:10318C005415D2F83414C3F86015D2F83814C3F8B7
:10319C006415D2F83C14C3F86815D2F84014C3F87F
:1031AC006C15D2F84424C3F8702502F07CF948B1B0
:1031BC004FF080534FF08042D3F8583203F04F0356
:1031CC00C2F8E43E02F06FF948B14FF08043D3F8F7
:1031DC000024D20744BF6FF00102C3F800244FF063
:1031EC008053D3F83021062A26D1D3F83431033B4F
:1031FC00042B02D8304AD35C63B1304AD2F83C3746
:10320C0043F48063C2F83C374FF08053D3F830312D
:10321C00062B11D14FF08053D3F83431033B042BE0
:10322C0002D8274AD35C3BB14FF01023D3F80822C5
:10323C004FF08043C3F858254FF01023D3F80022E9
:10324C00002A03DBD3F80432002B22DA1D490123B8
:10325C004FF01020C1F804351524FFF7EFFEC0F82D
:10326C000042FFF7EBFEC0F80442FFF7E7FE002335
:10327C00C1F80435FFF7E2FEBFF34F8F0A49124B3A
:10328C00CA6802F4E0621343CB60BFF34F8F00BFF8
:10329C00FDE70E4B0E4A1A6010BD00BF0030014016
:1032AC0000C007400DF0ADBA00ED00E0005000404A
:1032BC000A7D000000C000400F7D0000001000409F
:1032CC00147D000000E001400400FA0540000020DD
:1032DC000090D003044B1A7922B9012218609A800D
:1032EC000248704702487047F40D00200000AD0BF7
:1032FC000C00AD0B30B510B1012834D030BD4FF0FF
:10330C008043D3F81824D3F81814C90329D502F034
:10331C000302012A25D1C3F818254FF0804300225F
:10332C00C3F80421D3F804210222C3F80423134A5E
:10333C00D2F8FC0040F08073C2F8FC30104B1C68D3
:10334C0044F0010119605D685968491BB1F50A5FC9
:10335C00FAD31C604FF08043C2F8FC0001229A6043
:10336C00CCE70022D7E74FF080430022C3F80021BE
:10337C00D3F80021C3F804031860BFE700ED00E0A8
:10338C00001000E038B510B1012817D038BD4FF04F
:10339C0080440223C4F80833C4F80401D4F804317F
:1033AC000123E36042F21075D4F81834DB03EDD539
:1033BC00012002F087F8013DF6D1E7E74FF0804499
:1033CC000023C4F80803C4F80031D4F8003160605D
:1033DC0042F21075D4F80C34D4F80C24D20303F058
:1033EC00010305D523B1012002F06CF8013DF1D1A8
:1033FC00014B00225A71C9E7F40D00204FF08043B5
:10340C0010B5D3F800216AB10022C3F80021D3F81B
:10341C0000210122C3F80823114B587910B95A71B5
:10342C001B6898474FF08043D3F8042172B10022F7
:10343C00C3F80421D3F80421D3F81824D3F81814B2
:10344C00920704D10122C3F818259A6010BD0222FC
:10345C00C3F80823024BBDE810401B680120184735
:10346C00F40D0020012303FA00F0C3B293B14FF026
:10347C002003EFF3118183F31188BFF36F8F064A9A
:10348C00D36C23EA0000D06481F31188BFF36F8FF3
:10349C000248704702487047FC0D00200000AD0B3D
:1034AC000400AD0B2DE9F0410546DFF85CE0174850
:1034BC00DFF85C800024FF220126E3B24FF02001EC
:1034CC00EFF3118C81F31188BFF36F8F22FA03F1A4
:1034DC00C9070AD5DEF84C1006FA03F7394201BFCA
:1034EC003943CEF84C1040462B708CF31188BFF347
:1034FC006F8F404505D006FA03F39A4304F101049B
:10350C00DBD1BDE8F08100BFFC0D00200200AD0B4B
:10351C000000AD0B044AD2F80034DB07FBD5016088
:10352C00BFF35F8F704700BF00E001404FF0805346
:10353C001A69B0FBF2F302FB130373B9084B0222B6
:10354C00C3F80425C3F80805D3F80024D207FBD52B
:10355C0000220448C3F8042570470348704700BF95
:10356C0000E001400000AD0B0A00AD0B10B5054C9E
:10357C000123C4F80435FFF7CDFF0023C4F804354C
:10358C0010BD00BF00E001402DE9F041144A154E7A
:10359C00154F0546154800244FF0010E5FFA84FCC8
:1035AC004FF02003EFF3118883F31188BFF36F8F73
:1035BC000EFA0CF3134207D031680B4201BF1943CA
:1035CC00316085F800C0384688F31188BFF36F8FDF
:1035DC00B84203D09A4304F10104DFD1BDE8F08175
:1035EC00FFFF0F004C0E00200000AD0B0200AD0BD6
:1035FC0001680E4A9142034615D1C169A2F110220D
:10360C00A2F1EF1291420ED18268012A0BD8C26846
:10361C0012B101698A4206D0586928B19B691B1AFC
:10362C005842584170470120704700BF55AA00FF0F
:10363C000D4B70B59E68A6B13046FFF7D9FF044616
:10364C0078B9F3686BB935690DB9204670BD284659
:10365C00FFF7CEFF28B9EB68B34202D12E462D6995
:10366C00F2E70124F1E700BF500E00202DE9F843EA
:10367C00404F3C68D4B1BC68C4B100284DD000297F
:10368C004BD001FB00F5B5FBF0F0884245D1281D6D
:10369C0043D8A9070DD025F003060436FC6803E0D7
:1036AC006368B3423BD2A469002CF9D12046BDE833
:1036BC00F8832E46F2E7F86044E006F1200C04EBA8
:1036CC000C03203959600021C3E90214DFF8A8E08B
:1036DC002169196144F80CE0DFF8A0C0C3F81CC0E4
:1036EC0001B1CB60C3E90520AAB193619A6902B11B
:1036FC00536123610023C4E905333B694FF0010991
:10370C00DB07C4E901692DD5FFF792FF50B31C4BC1
:10371C0048461B6825E0FB60E8E70024C6E7A36881
:10372C001BB1174B01201B6898476168891B232923
:10373C00D4E9052004F12008BFD80123A360002A96
:10374C00B9D09061A36903B15A610023C4E9053370
:10375C003B69DA0706D5FFF76BFF18B1084B1B68FE
:10376C00012098472A4600214046444601F090FB30
:10377C009CE700BF500E002055AA00FF669911EE81
:10378C00480000202DE9F041054600287CD03F4F31
:10379C003B68002B78D0BA68002A75D0834203D8D6
:1037AC007A681344984203D3394B01201B6898471D
:1037BC00A5F120042046FFF71BFF18B1344B012064
:1037CC001B68984755F8183C012B03D0304B01204F
:1037DC001B68984755F8146C002345F8183CAEB19B
:1037EC00B26892B955F81C3C03F12002736813447B
:1037FC00736055F8103C336103B1DE602046202223
:10380C00002101F045FB234634461E462069002862
:10381C0032D08368002B2FD1636842682033134465
:10382C00D4E90521636003692361DAB901BB4269FC
:10383C0081696261A161EAB19461A26902B15461CA
:10384C0003B1DC602022002101F022FB3B699B07C5
:10385C001AD5FFF7EDFEB8B10D4BBDE8F0411B6872
:10386C00012018479161A1690029E0D04A61DEE787
:10387C00F960F8E7FC60E0E7002EE7D1FB68A36194
:10388C0003B15C61FC60E1E7BDE8F081500E002003
:10389C004800002038B514220D4604460021124879
:1038AC0001F0F6FA1149124800F032F8232D1AD91A
:1038BC0014F003031FBF043DED18C3F10403E41817
:1038CC002A460021204601F0E3FA074B094A9C6086
:1038DC00C3E900452260A2F11022203DA2F1EF12B3
:1038EC006560E261DC6038BD500E0020913700004D
:1038FC007936000055AA00FF014B1B68184700BF22
:10390C0044000020014B1B68184700BF4C000020EE
:10391C00024B1860024B00201960704744000020D5
:10392C004C0000200A4619B1024B00211B681847B5
:10393C00704700BF50000020F8B500F1080647683A
:10394C00044630460D4602F045F9874216D16368AD
:10395C00B3F5807F12D80021304602F0B1FA00286E
:10396C000CDD0021304602F008F938B145B90021D0
:10397C0004F1140002F0A4FA00281EDC1B481EE01F
:10398C0004F12C060021304602F09AFA0028F5DDED
:10399C000021304602F0F1F80028EFD004F138068F
:1039AC000021304602F08CFA0028E7DD0021304679
:1039BC0002F0E3F80028DAD1E0E70DB90020F8BDF9
:1039CC00002104F1440002F07BFA0028D6DD00212E
:1039DC0004F1500002F074FA0028CFDD002104F14C
:1039EC005C0002F06DFA0028E8DCC7E780BFFFFF3F
:1039FC0070B500210446FFF79FFF0546B8B904F1E6
:103A0C000806304602F0CAF87F2810D9143429462B
:103A1C00204602F0B2F850B1204602F0BFF801285F
:103A2C0005D93146204602F00AFA002800DB014D88
:103A3C00284670BD00BEFFFFF0B50C4687B00021D4
:103A4C0005461646FFF778FF80BB03A802F00FF877
:103A5C0021466A6803A802F0C3F80446D0B905F100
:103A6C000804214603A802F0EAF900281BDA05F144
:103A7C00680303A9009305F11402234608466F68F6
:103A8C0002F069FD044628B93A46314603A802F013
:103A9C00DFF8044603A801F0F0FF0CB1A4F585444F
:103AAC00204607B0F0BD6FF00304F3E7004CF7E7D6
:103ABC0080BFFFFF0023C0E90033C1B9194A1A4B7C
:103ACC00DFF868C0C0E90223194B1A4AC0E904C3E5
:103ADC00194BC0E90623194B036203F17453A3F588
:103AEC002303A3F692434362816600207047144B74
:103AFC00144ADFF854C0C0E9022303F1794303F5FB
:103B0C00740303F501630361104BC0E905C303F1B2
:103B1C00D14303F5C01303F51E63C3610C4B036261
:103B2C000C4BE0E767E6096A85AE67BB72F36E3C47
:103B3C003AF54FA57F520E518C68059BABD9831F6C
:103B4C0007D57C36D89E05C139590EF7310BC0FF0D
:103B5C00A78FF964A44FFABE2DE9F04FD3B000F152
:103B6C00080304934AAB059300F128030693DDE99F
:103B7C00043253F8040B42F8040B06989842F8D11F
:103B8C000AAA01F140004B780C781B0443EA046349
:103B9C00CC7823438C78043143EA0423884242F8DE
:103BAC00043BF0D1509BA4480093DDE94A72DDE957
:103BBC004C310DF1200BDDF844C1DDF838A14F9EDE
:103BCC000190DE468146DEF80840D9F800004FEA45
:103BDC00FA2585EABA15204485EA7A6505440098E9
:103BEC00009C704000EA0A006040054447EA020469
:103BFC004FEA7730AC4480EAB70007EA02051C4074
:103C0C0080EAB7502C430444D9F80450DEF80C0079
:103C1C00054400986144A4448AEA060405440C4017
:103C2C004FEAF120744080EAB110254480EA7160BB
:103C3C0028444CEA07044FEA7C350CEA070885EA6D
:103C4C00BC05144044EA080485EABC5525440544E7
:103C5C000344D9F80840DEF810000444264481EAF5
:103C6C000A041C4084EA0A0806EB08044FEAF3260F
:103C7C0086EAB31686EA736626444CEA05004FEAD8
:103C8C0075340CEA050884EAB504384040EA0800AB
:103C9C0084EAB554044434443244D9F80C00DEF8B8
:103CAC0014603044824481EA0300104080EA010829
:103CBC000AEB08004FEAF22A8AEAB21A8AEA726A16
:103CCC00824445EA04064FEA74300AEB070880EA9E
:103CDC00B40005EA040706EA0C063E4380EAB45039
:103CEC00DEF818703044D9F8106050443E4483EA32
:103CFC00020A31440AEA080A4FEAF8268AEA030A59
:103D0C0086EAB816514486EA78660E4444EA0007FF
:103D1C004FEA703104EA000A81EAB0012F4047EA09
:103D2C000A0781EAB05139443144B444DEF81C70BE
:103D3C00D9F8146082EA080A3E4433440AEA0C0AB1
:103D4C004FEAFC268AEA020A86EABC16534486EA43
:103D5C007C661E44AB19009340EA01054FEA7133AF
:103D6C0000EA0107254083EAB1033D4383EAB153DE
:103D7C002B443344D9F81850DEF8206035442A44DB
:103D8C00009D009E88EA0C072F404FEAF52587EA34
:103D9C00080785EAB6153A4485EA7665154466192E
:103DAC004FEA733241EA0304044001EA030782EA52
:103DBC00B3023C4382EAB35222442A44D9F81C4051
:103DCC00DEF824502C44A044009C8CEA04043440BB
:103DDC0084EA0C0708EB07044FEAF62888EAB618C1
:103DEC004FEA723588EA766885EAB20543EA02073B
:103DFC0044440F4085EAB25803EA02053D4300EB08
:103E0C00040A0EF1200E18A84544704504EB050772
:103E1C0009F120097FF4D7AE0098CDF844C1CDE963
:103E2C004A72CDE94C31CDE90845CDE94F6038A84F
:103E3C00CDF838A1079001E090700000DBF840004D
:103E4C00DBF80C50DBF808404FEAF04E8EEA704E6F
:103E5C008EEA902EDBF82C004FEAB548044488EA31
:103E6C00F518A64488EAD5080EEB080003904FEA33
:103E7C00FA24009884EABA1484EA7A6E80EA06047A
:103E8C0004EA0A0444400198006C74442044039CE6
:103E9C00CBF848402044844401EB0C0847EA02006C
:103EAC004FEA773107EA020481EAB701184081EA48
:103EBC00B75120430844DBF84410DBF8104084442D
:103ECC004FEAF14080EA714080EA9120DBF8301033
:103EDC00294408444FEAB44181EAF41181EAD4013F
:103EEC0001440198009D406CCBF84C108AEA060EF8
:103EFC000EEA080E28444FEAF82508448EEA060E0E
:103F0C0085EAB81585EA7865864405EB0E0003440E
:103F1C0000934FEA7C3547EA0C0307EA0C0E85EA5E
:103F2C00BC05134043EA0E0385EABC551D44039BB4
:103F3C004FEAF34E8EEA734E8EEA932EDBF8343052
:103F4C002344009C05448AEA0809DBF8140009EABA
:103F5C000409019C9E444FEAB043A46C83EAF0131D
:103F6C0083EAD0037344344404EB030E009C009E9C
:103F7C00CBF850304FEAF42489EA0A0984EAB614E3
:103F8C0084EA7664F14404EB090E72444CEA0506AB
:103F9C004FEA7534029284EAB5040CEA05023E40FD
:103FAC0084EAB5541643264406EB0E044FEAF14658
:103FBC0086EA714686EA9121DBF83860DBF8182036
:103FCC00064431444FEAB24686EAF21686EAD20635
:103FDC000E44009988EA010E02990EEA010E01992D
:103FEC00CBF85460C86C504481198EEA080E8E448C
:103FFC0002994FEAF12080EAB11080EA716000EB7F
:10400C000E0145EA040A4FEA743007EB010980EA15
:10401C00B40005EA04070AEA0C0A80EAB4504AEA3A
:10402C00070A82440AEB01004FEAF34181EA73412B
:10403C0081EA9323DBF83C10DBF81C700A44134430
:10404C004FEAB74282EAF71282EAD7021A4402997F
:10405C00009BCBF8582083EA010E0EEA090E8EEA7B
:10406C00030E019B1B6D4FEAF9211344434481EA73
:10407C00B9119E4481EA796101EB0E0344EA000E0A
:10408C004FEA703104EA000881EAB0010EEA050E2D
:10409C004EEA080E81EAB051714419449C444FEA2F
:1040AC00F64383EA7643DBF820E083EA9626DBF8D6
:1040BC0040301F444FEABE4383EAFE1383EADE031B
:1040CC0037441F44029B009ECBF85C7083EA0908BE
:1040DC0008EA0C0888EA0308019B5B6D3B443344F7
:1040EC0098444FEAFC2383EABC1383EA7C6303EB1A
:1040FC000806AB19009340EA01054FEA713300EA58
:10410C000108254083EAB10345EA080583EAB15367
:10411C002B4433444FEAF24686EA7246DBF824809D
:10412C0086EA9226DBF8442096444FEAB84282EAAB
:10413C00F812764482EAD8021644009ACBF86060F2
:10414C0089EA0C0E0EEA020E019A956D029A35441C
:10415C001544009A009E4FEAF2228EEA090E82EA7A
:10416C00B61282EA76627544154466194FEA7332C8
:10417C0041EA0304044001EA030E82EAB30244EA72
:10418C000E0482EAB35222444FEAF74484EA77449D
:10419C0084EA9727039C2A44DBF82850444427449C
:1041AC004FEAB54484EAF51484EAD5043C44019FF3
:1041BC00009DFF6DCBF864408CEA05052744354023
:1041CC004FEAF62485EA0C054F4484EAB6142F44D2
:1041DC0084EA76643C4400EB040A01984FEA723599
:1041EC0085EAB205203043EA020785EAB25E0F4049
:1041FC0003EA0205019007983D430BF1200B75442F
:10420C00584504EB05077FF419AE0098CDF844C16E
:10421C00CDE94F60CDE94A72CDE94C31CDE9084585
:10422C00CDF838A1049B05991B6851F8042B059116
:10423C001344049A42F8043B069B04929342F1D136
:10424C0008A84FF49471FFF76DFB002053B0BDE844
:10425C00F08F00BF10B5144C144A15490323236189
:10426C006361144BA261E3614FF48063236200230A
:10427C00A3626362E36222660F4A6266E01D10224B
:10428C00A2662367E366636700F0C9FDBFF35F8F27
:10429C000A49204600F0C3FDBFF35F8F2023A371B2
:1042AC00BFF35F8F10BD00BF640E00201E7D0000A9
:1042BC00277D00003F2800202F2800202B7D0000A8
:1042CC000E4B70B553F82040013053F82060A642D5
:1042DC0000D870BDD4E900352846984765B1EB6825
:1042EC0030B10028B8BF4042FF28A8BFFF2018708B
:1042FC005A7842F001025A700834E8E790710000D5
:10430C0070B5054610B90024204670BD0378002B0B
:10431C00F9D00E4C0E4EB44208D10C4CB442F2D033
:10432C00204602F075FC50B91834F7E7204602F02D
:10433C006FFC10B12368AB42E6D01834EBE7216870
:10434C00284600F07DFD0028EED1DDE7986C0000DA
:10435C00106D000073B504460D464FF02003EFF3CB
:10436C00118683F31188BFF36F8F042896BF124B0D
:10437C00124B53F82030002200924521024610487F
:10438C0000F0ECFB3DB1EB69C3F308031BB10D4826
:10439C00452100F0E3FB0C4B0C480022452100F0BA
:1043AC00DDFB29462046FEF74DFD86F31188BFF351
:1043BC006F8F02B070BD00BFA4710000327D000091
:1043CC00407D00006D7D0000937D00009B7D000012
:1043DC000248034A0021121A00F05ABD580000206E
:1043EC00402C002008B5094B012202201A70FFF75F
:1043FC0067FF00F05FF80320FFF762FFFBF7EAFFAF
:10440C00034A137B23F00103137308BD3F2C0020D8
:10441C005800002008B5174B83F30888164C6369C5
:10442C0043F4007363610025E02384F82230E577C0
:10443C0025766576A576636A43F4E0236362FDF71F
:10444C00C3FFFDF75DFD4FF0FF33A362E362FEF7A0
:10445C0091F8FEF713F802F0DAFB2846FFF730FF6D
:10446C000120FFF72DFF05482B462A462946FDF76C
:10447C002FFD00BF805C002000ED00E0F143000048
:10448C0008B50648064A0749121A00F0F6FCBDE8C2
:10449C000840054A0549064800F0EFBC0000002022
:1044AC00540000203C7E0000000000003C7E000018
:1044BC0000000020024A0349034800F096BA00BFEE
:1044CC00927D0000057E0000147E0000704729B12B
:1044DC00012914BF6FF015000520704702207047AA
:1044EC002DE9F7430E4617469946044628B94FF076
:1044FC00FF38404603B0BDE8F0830029F7D0002A0E
:10450C00F5D0CB680D891D4404230DEB030229461D
:10451C00384600F051FB80460028E8D1BDF8041065
:10452C00738946F60812914223D1BDF806109942C0
:10453C00DDD104230DEB03022944384600F03CFB8B
:10454C000028D4D1BDF8042046F607139A42CED1E8
:10455C009DF82830A3727389BDF80620A4F8089042
:10456C002B44E36004351344C4E90067636125619F
:10457C00BFE7002BE6D0BAE72DE9F7430F4690468C
:10458C001E46044620B94FF0FF3003B0BDE8F0835F
:10459C000368002BF7D04368002BF4D04FF6FF795B
:1045AC00D4E904239A4216D223685B8923B1E368C9
:1045BC00934204BF043323610423216960680DEB2B
:1045CC00030200F0F9FA0028DDD1A37A256923B1A2
:1045DC00E368AB4201D80120D7E72189BDF806205A
:1045EC00494502F1040303D0BDF804C08C450BD13E
:1045FC0016B1BDF80410318004353D60A8F80020D8
:10460C00226913442361C0E72B442361C8E700F0FF
:10461C0023BC4FF4C0735843303070470B78022BD7
:10462C0006D0052B0CBF4FF4C0704FF0FF30704715
:10463C004FF4C070704710B5044600F03BFBA36804
:10464C004FF4C072303B02FB103010BD8168012268
:10465C00203900F0F2BE13B50446019100F08CFE37
:10466C000423A0F108010DEB0302204600F0B8FE74
:10467C0002B010BDF8B513460F461646002102468F
:10468C000546FCF7A5FB044650B9334605F12C0250
:10469C0001212846FCF79CFB10B1002F18BF0446E3
:1046AC002046F8BD73B5054600200C461646FFF7AC
:1046BC000EFF6946C0B2FDF78DF930BB2C2101FB12
:1046CC00045400982189E368CD1804230DEB0302F0
:1046DC00294600F071FAC0B9BDF80420648946F689
:1046EC0008139A4216D1BDF806309C420DD1042312
:1046FC0000980DEB0302611900F05EFA28B9BDF8C1
:10470C00042046F607139A4207D0009800F053FA9B
:10471C0002B070BD002CF2D0F7E7BDF806102144B2
:10472C0029443160F1E737B5426A0446802501A976
:10473C0002200195FDF762F958B9019B226DA36225
:10474C0001A905200195FDF759F9054628B1092560
:10475C0000E00125284603B030BD019B206A63654B
:10476C0000F0A8FAE065F5E70123036003F10123EB
:10477C0043600023C0E9023370474379012B07D112
:10478C000368012B04D10079431E584258417047ED
:10479C00002070477FB506460D46022001A9FDF7A3
:1047AC0019F938BB0198FFF746FFF16D044628460E
:1047BC0000F0E4F80444019800F07CFA06460198F5
:1047CC0000F081FA082201460DEB020000F060FBBC
:1047DC002B798DF8083021460198334602AA00F057
:1047EC0007FA041E18BF0124019800F0E4F92046D2
:1047FC0004B070BD0124F7E700F02DBA2DE9F843A1
:10480C000E46002107460846FFF761FE01210446CB
:10481C000020FFF75CFE33789C4221D0984221D1D6
:10482C0001252C2303FB0575F86DAC6AFFF7F1FE2F
:10483C00013C07464FF000086B6A03EBC40253F8C7
:10484C003410D2F804901B684A46C91A3046C84442
:10485C00FFF7D2FFB84504F1FF34EDD3BDE8F88380
:10486C000025DEE70120F9E737B515460C46052093
:10487C00694600F0F5FDE979012903D000222046B4
:10488C0000F002FE9DF80330012B02D1204600F00F
:10489C00DEFDA9682046FFF7DEFE2046FEF7DCFAB7
:1048AC00002003B030BD73B50D460646FCF778FB0F
:1048BC000446E86030B102282ED101A9FDF78AF830
:1048CC0018B10124204602B070BD01982A46314629
:1048DC00FCF7CCFA0446D8B9019800F04DFD012341
:1048EC0001460DF10302019800F066F90446002818
:1048FC00E7D1019801220DF1030100F04EFD10B13A
:10490C0001238DF803309DF8033003F00F03EB7196
:10491C00019800F050F9D5E70724D3E713B502202E
:10492C0001A9FDF757F848B90198FFF78FFE044627
:10493C00019800F040F9204602B010BD0124FAE7BE
:10494C001FB5022001A9FDF745F8A8B9019802A9E5
:10495C00FEF790FA044668B99DF80B30032B03D18F
:10496C00019800F074FD0446019800F024F92046EB
:10497C0004B010BD0124F7E70124F8E730B5437902
:10498C000279012B0CBF0123022301FB03F4036802
:10499C0003F1FF3302F1FF3204FB03F314BFCD012B
:1049AC00002501FB0231481930BD034658B142685D
:1049BC0002F00302012A03D0032A04D1026812B1C7
:1049CC000020986070476FF0150070474268816056
:1049DC0002F00302032A4FF0000203460CBF0068EA
:1049EC0010465A607047002070470FB407B504A9F1
:1049FC0051F8040B0191FCF7B3FC03B05DF804EB28
:104A0C0004B07047038B13F0070305D10368002B28
:104A1C000CBF002003207047022B05D1438B002BC9
:104A2C0014BF002004207047012B05D10368002B14
:104A3C000CBF002005207047002070472DE9F04185
:104A4C000D4607461946281D90461E46FFF7BEFF29
:104A5C00044638B13346424629463846A446BDE89A
:104A6C00F0416047BDE8F08110B44FF02004EFF343
:104A7C00118284F31188BFF36F8F416110BC012147
:104A8C00FCF77CBC10B50C4640B139B1081DFFF7E2
:104A9C008CFF28B9A36833F0030301D06FF0150025
:104AAC0010BD38B50C46054658B151B10B6843B131
:104ABC004B6833B11C22002100F0EAF92C61002074
:104ACC0038BD6FF01500FBE770B504460E46FFF7D6
:104ADC00D9FF051E31DB4FF02003EFF3118183F377
:104AEC001188BFF36F8F638B208B4FF6FF75AB4232
:104AFC0000F007022ED0022A0ED101336383154633
:104B0C00012381F31188BFF36F8FB3B100233146BA
:104B1C002046FFF793FF10E0830701D0062A0ED141
:104B2C0000233360636893B9C4E90066154662B923
:104B3C000A4620460221FCF721FC284670BD052AB6
:104B4C000CBF6FF085056FF004050023D9E71E60DC
:104B5C006660EBE76FF00A05F7E770470FB407B52F
:104B6C0004A951F8040B0191FCF7FAFB03B05DF8B2
:104B7C0004EB04B07047FFF7C3BB70B502684C6818
:104B8C00A24216D38B6823449A4206D2D1E904354B
:104B9C00AB4204D36FF00B038B6100200AE0CD68AD
:104BAC00121B05EBC30645F83320426872600133D3
:104BBC000B61012070BD70472DE9F0410C1E0546BC
:104BCC0017461E4610DB8268E31893420CD8C06867
:104BDC00FFF7D1FF6968214483681C683A46334665
:104BEC00A446BDE8F04160476FF01500BDE8F081C8
:104BFC002DE9F843B1F10009804617461E4627DB24
:104C0C0082684B44934223D8C068FFF7B4FFD8F8AE
:104C1C00041005468944D0F80880D8F80C306BB9DC
:104C2C00D8F8044033463A4649462846A047D8F8B7
:104C3C000C30044643B92046BDE8F8830021984760
:104C4C0004460028ECD0F6E7012128469847F2E705
:104C5C006FF01504EFE72DE9F0410C1E05461746E1
:104C6C0025DBA3188268934221D8C068FFF783FF25
:104C7C006D6806462544D0F80880D8F80C3063B926
:104C8C00D8F808303A46294630469847D8F80C30C0
:104C9C00044643B92046BDE8F081002198470446FC
:104CAC000028EDD0F6E7012130469847F2E76FF087
:104CBC001504EFE708B5C068FFF75DFF83681B6953
:104CCC009847007808BD08B5C068FFF754FF8368A3
:104CDC001B699847007908BD83685B6818470369AE
:104CEC00C9B20C2201FB0233186C00F007007047AC
:104CFC004FF02003EFF3118283F31188BFF36F8F12
:104D0C00036803F0C00343F00203036082F31188CD
:104D1C00BFF36F8F7047034670B50069C9B24FF08F
:104D2C002004EFF3118684F31188BFF36F8F0C25E9
:104D3C0005FB0104246C14F0C00401D0A24211D173
:104D4C0005FB010001220264002086F31188BFF3E9
:104D5C006F8F30B95B680C2202FB01314B689847AE
:104D6C00002070BD4FF0FF30EFE78022FFF7D3BF7C
:104D7C00F8B5069F04690546C9B24FF02000EFF361
:104D8C00118C80F31188BFF36F8F0C2606FB014644
:104D9C00306C00F0070EBEF1010F10D13764002605
:104DAC008CF31188BFF36F8F3EB90C2041430C4438
:104DBC00C4E90E236B685B5898473046F8BD00F089
:104DCC00C000874214BF4FF0FF366FF07706E7E75D
:104DDC0013B580240094FFF7CBFF02B010BD6FF029
:104DEC0085007047006910B4CBB21C2403FB04008F
:104DFC00002110BC10470020FEF7C4BA7047704762
:104E0C0000210120FDF78CB801460068FDF788B839
:104E1C0008B5FDF7B3F8BDE80840FDF7DDBA013978
:104E2C00034611F8012F0AB91A70704703F8012BC9
:104E3C00F7E7034600201A5C02B970470130FAE725
:104E4C00431E013913F8012F11F8010F824201D1D1
:104E5C00002AF7D1101A704710B503465AB1013920
:104E6C00841813F8010B11F8012FA34201D09042C2
:104E7C00F7D0801A10BD1046FCE710B5431E0A444B
:104E8C00914200D110BD11F8014B03F8014FF7E727
:104E9C00C9B202440346934200D1704703F8011B88
:104EAC00F9E74FF0FF30704700F01F00800000F171
:104EBC00A040D0F8003723F4403343EA0143C0F854
:104ECC000037704743685B68D3F810350B600020DF
:104EDC00704743685B68D3F8040542400A4042407F
:104EEC00C3F804250020704743685B680020C3F8B2
:104EFC000815704743685B680020C3F80C157047B1
:104F0C0043685A68D2F804354B40C2F80435002087
:104F1C0070470369586830B558B10024814212D1EA
:104F2C0008689D6854B98D42586000D19860002083
:104F3C0008606AB9002030BD2846EFE78D4220603A
:104F4C0008BF9C60F3E705680446002DF4D13AB124
:104F5C0098685A680A6059600028EBD19960EAE7B2
:104F6C006FF01500E7E738B504460D4600F0B6FAC9
:104F7C00844209D2002C07DBA84205D32C4484427E
:104F8C008CBF0020012038BD0020FCE72DE9F04744
:104F9C00836886B05B698846914601A902AA984746
:104FAC000024A2462546029BAB4202D806B0BDE8BF
:104FBC00F087019F07EBC50700267B6804933A68CE
:104FCC00B2420AEB060302D801359A46EBE7494692
:104FDC0003A803940593C0470028E7D0049B01362F
:104FEC001C44ECE702690B46D2E9010183E803009B
:104FFC000020704743681B68D3F88004C3F8800412
:10500C007047436802691B68D3F8100148B1527DA0
:10501C000A700020C3F81001D3F8102101221A6085
:10502C0070474FF0FF307047002A10B504460FDD73
:10503C0043681B68D3F8100148B122690020C3F8FB
:10504C001001D3F81001527D0A700120186010BDB8
:10505C000020FCE7436801691A684FF02000EFF369
:10506C00118380F31188BFF36F8FC9680020887398
:10507C004FF48001C2F8041383F31188BFF36F8FD0
:10508C0070470369DB6801229A7370470369DB6818
:10509C009A7B02F0FF0162B942681268D2F858019B
:1050AC0040B1D2F8040310F4800003D01961012040
:1050BC0070470020704743681B68D3F81001003814
:1050CC0018BF0120704743681B681022C3F80423E3
:1050DC00704743681B681022C3F808237047436865
:1050EC001B684FF40072C3F80423704743681B68B5
:1050FC004FF40072C3F8082370470120704703690E
:10510C00DB68C3E90012704738B543681D68D5F8F1
:10511C0004335B02044605D4D5F8040310F01000E8
:10512C0006D138BDFFF7B2FF0028F5D00120F8E713
:10513C002046FFF7C0FF003818BF0120F1E70368D5
:10514C00C3F84415C3F848250022C3F82021D3F82E
:10515C002011C3F85821D3F858214268D20641BF18
:10516C000822C3F800254FF48002C3F8042301225F
:10517C009A60704702680346D2F8580140B95B68E0
:10518C001B0706D4D2F82001003818BF0120704745
:10519C0001207047F8B50669F3689C89BFF35B8FF3
:1051AC009442A8BF144605461033012253E8000F61
:1051BC00002803D143E80027002FF7D1BFF35B8F02
:1051CC000CBF134600231DD01C462046F8BDF268C8
:1051DC00C85C9268D0540133A342F8DB4FF0200333
:1051EC00EFF3118783F31188BFF36F8F6868FFF7B4
:1051FC00C1FFF36840B91861044687F31188BFF307
:10520C006F8FE2E70023E7E7996868682246FFF7AB
:10521C0096FFF2E743681B68D3F80423D10510B45A
:10522C0018D5D3F82021AAB14FF02001EFF3118249
:10523C0081F31188BFF36F8FD3F8201131B10021A6
:10524C00C3F82011D3F820110121D96082F3118801
:10525C00BFF36F8F42685268D2061AD54FF0200206
:10526C00EFF3118182F31188BFF36F8FD3F85821BC
:10527C0012B10022C3F800250269D2680AB1126982
:10528C001AB94FF48002C3F8082381F31188BFF3D5
:10529C006F8F0269D2685AB1D3F8581151B1947B0F
:1052AC000021116134B14FF48000C3F808039173ED
:1052BC0010BC7047D3F8241121B10021C3F824117C
:1052CC00D3F824311368002BF2D0516810BC184766
:1052DC002DE9F0434FF080430446884685B0012702
:1052EC0044EA080400EB0109C3F80876050B102208
:1052FC0000216846C4F30B04FFF7CAFD4FEA1936C8
:10530C0024B9B9F5012F01D2B54210D96FF01500AF
:10531C001EE06A0904AB03EB820205F01F0352F88E
:10532C00101C07FA03F30B4342F8103C0135B5424D
:10533C00EFD14FF08043009AC3F80026019AC3F8CE
:10534C000426029AC3F81026039AC3F814260020E8
:10535C0005B0BDE8F08338B50C4615462544FFF77B
:10536C00B2FC2146A94201D1012038BD11F8013B04
:10537C009842F7D00020F8E7806828387047042856
:10538C0009D0052803D1481E18BF01207047431AC5
:10539C005842584170470120704711B10AB1FFF7CC
:1053AC00DABF0020704738B50C460123114622465F
:1053BC000546FFF701FC002810DB01222146284698
:1053CC00FFF7EBFF18B103232370002038BD2378BF
:1053DC00012B0CBF012302232370F7E70120F5E713
:1053EC002DE9F7431D4606460F469046FFF762FC33
:1053FC004419013C40420440E4B2082C1AD830460F
:10540C00FFF761FC2A46814641466846FFF735FDA9
:10541C00621B49460DEB0500FFF73AFD23466A4631
:10542C0039463046FFF7E4FB003818BF012003B0C3
:10543C00BDE8F0834FF0FF30F9E707B501238DF895
:10544C00042001AAFFF7CCFF03B05DF804FB8168D0
:10545C0001221839FFF7F1BF8268183AFFF7A3BF92
:10546C0013B50C46C0B201A9FCF7B4FA50B92146E9
:10547C000198FDF7FFFC04460198FFF79CFB2046C2
:10548C0002B010BD0124FAE707B541EA02118DF80C
:10549C000710816801230DF107022839FFF7A0FFDF
:1054AC0003B05DF804FB4FF08053D3F83001421C7D
:1054BC0004BF4FF0704393F8E00F831F58425841DC
:1054CC007047004701F0B4BB08B50020FCF7C4FCE2
:1054DC0018B9BDE80840FCF7AFBC08BD4FF08053CD
:1054EC001A695869504370474FF0805318697047D8
:1054FC004FF080535869704700207047036870B5AF
:10550C00CD1A002D0DDD93F900601C78002E0BDBFD
:10551C005C1C04601B7813600368C91A13688B4207
:10552C0032D96FF05F0070BD04F07F04013C032C96
:10553C0027D8DFE804F00209121E012DF1D05C78A7
:10554C00146002330360E7E7022DEADDB3F8014093
:10555C0064BAA4B214600333F4E7032DE1DD9C7844
:10556C005D78240244EA0544DD782C43146004334E
:10557C00E8E7042DD5DDD3F8014024BA14600533D7
:10558C00E0E76FF06300CEE70020CCE770B404686E
:10559C000E1B002E07DD26789E4208D101340460D4
:1055AC0070BCFFF7ABBF6FF05F0070BC70476FF063
:1055BC006100FAE737B50223154601AA0446FFF746
:1055CC00E5FF40B9019A2168284600F009FB2368E1
:1055DC00019A1344236003B030BDF0B5054600209A
:1055EC0004390446AC4200D1F0BD51F8047F3B1A9B
:1055FC000B6052F82460B3422CBF4FF0000C4FF0FC
:10560C00010C9B1B87422CBF60460CF101000B6008
:10561C000134E7E72DE9F04391460E4602F14004D0
:10562C0086460025BEF10F0F54F840CC06F140061B
:10563C0004F140047DD807096FF00F0606FB07063E
:10564C00072E4FEA871E01EB871409EB87105CD9F4
:10565C0051F80E70A3FB07176D1847F100071CEBF0
:10566C00050549F80E50616847F10002A3FB015192
:10567C005219456841F1000152194260A26841F18A
:10568C000001A3FB02524919856842F10002491935
:10569C008160E16842F10002A3FB01515219C56817
:1056AC0041F100015219C260226941F10001A3FBD2
:1056BC0002524919056942F10002491901616169F7
:1056CC0042F10002A3FB01515219456941F100015D
:1056DC0052194261A26941F10001A3FB025249191E
:1056EC00856942F1000249198161E56942F10002C4
:1056FC00A3FB0551521941F10005C1695218C26151
:10570C0045F10005083E203020344FEA860E07464E
:10571C0004EB8606A64257F8041B40F0088170443F
:10572C0003685B1940F8043B4FF00105F8D2BDE863
:10573C00F08356F8407C54F87C2CA3FB078715EBC0
:10574C00080547F100071CEB050544F8805C56F88A
:10575C003C5C47F10007A3FB05C517EB0C0745F1B3
:10576C000005D71944F87C7C56F8387C45F10005C7
:10577C00A3FB07C715EB0C0C54F8785C47F100073A
:10578C0015EB0C0544F8785C56F8345C47F10007CF
:10579C00A3FB05C517EB0C0C54F8747C45F1000504
:1057AC0017EB0C0744F8747C56F8307C45F1000577
:1057BC00A3FB07C715EB0C0C54F8705C47F1000702
:1057CC0015EB0C0544F8705C56F82C5C47F100079F
:1057DC00A3FB05C517EB0C0C54F86C7C45F10005CC
:1057EC0017EB0C0744F86C7C56F8287C45F1000547
:1057FC00A3FB07C715EB0C0C54F8685C47F10007CA
:10580C0015EB0C0544F8685C56F8245C47F100076E
:10581C00A3FB05C517EB0C0C54F8647C45F1000593
:10582C0017EB0C0744F8647C56F8207C45F1000516
:10583C00A3FB07C715EB0C0C54F8605C47F1000791
:10584C0015EB0C0544F8605C56F81C5C47F100073E
:10585C00A3FB05C517EB0C0C54F85C7C45F100055B
:10586C0017EB0C0744F85C7C56F8187C45F10005E6
:10587C00A3FB07C715EB0C0C54F8585C47F1000759
:10588C0015EB0C0544F8585C56F8145C54F8442C91
:10589C00A3FB05C547F1000717EB0C0C54F8547C1F
:1058AC0045F1000517EB0C0744F8547C56F8107CB6
:1058BC0045F10005A3FB07C715EB0C0C54F8505C25
:1058CC0047F1000715EB0C0544F8505C56F80C5CDE
:1058DC0047F10007A3FB05C517EB0C0C54F84C7CE7
:1058EC0045F1000517EB0C0744F84C7C56F8087C86
:1058FC0045F10005A3FB07C715EB0C0C54F8485CED
:10590C0047F1000715EB0C0544F8485C56F8045CAD
:10591C0047F10007A3FB055C7F194CF10005D71973
:10592C0045F1000544F8447CAEF1100E7AE654F8CB
:10593C00042BA3FB022CAD184CF10002691842F1A8
:10594C00000547F8041CE5E62DE9F04F85B0174635
:10595C000E9C00906268A06803938A469200002116
:10596C00FFF796FA7D68DAF80430A668AB4228BFD8
:10597C002B466C1C0193A400B1464FF00008009B11
:10598C00A845986821D1043C06EB04082246414600
:10599C00FFF773FA56F81430BA68013346F814302E
:1059AC0041462846FFF719FE56F81430181A009B8A
:1059BC0046F814009B68C0B2043B0021C0F10104FE
:1059CC008D4221D105B0BDE8F08FDAF8081050F8FF
:1059DC0028B0D9F800300868039A00FB0B33534306
:1059EC00019802934A465B46FFF714FE029BB96886
:1059FC004A462846FFF70EFE49F804BB002349F837
:105A0C00043008F10108BAE758F8212053F8046F64
:105A1C00424306FB04221A600131D1E773B501F150
:105A2C008041013900EB8101814201D202B070BD8D
:105A3C000368019304230DEB03020025144612F8AE
:105A4C00016B013B13F0FF0346EA0525F7D10A6809
:105A5C000192042214F8016B013A12F0FF0246EA9B
:105A6C000323F7D140F8043B41F80459DCE7002349
:105A7C000122C0E900238360704710B5044668B169
:105A8C00806830B161688900FDF74CFFA068FDF7B4
:105A9C0039FF00230122C4E90023A36010BD42F2A8
:105AAC001073994270B504460D4602D96FF00F0081
:105ABC0070BD43688B4216D204212846FDF71CFFAB
:105ACC0006460028F2D0A16859B162689200FFF72F
